S01600007A5F46696E616C5F50726F6A6563742E733337E5
S113000000100020411100003D1100003D110000CE
S11300103D1100003D1100003D1100003D110000A4
S11300203D1100003D1100003D1100003D11000094
S11300303D1100003D1100009B540000BD64000010
S11300403D1100003D1100003D1100003D11000074
S11300503D1100003D1100003D1100003D11000064
S11300603D1100003D110000A16400003D1100009D
S11300703D1100003D1100003D1100003D11000044
S11300803D1100003D110000B96400003D11000065
S11300903D1100003D1100003D1100003D11000024
S11300A03D1100003D1100003D1100003D11000014
S11300B03D1100003D110000396200003D110000B7
S11300C03D1100003D1100003D1100003D110000F4
S11300D03D1100003D1100003D1100003D110000E4
S11300E03D1100003D1100003D1100003D110000D4
S11300F03D1100003D1100003D1100003D110000C4
S11301003D1100003D1100003D11000010B5054CEB
S1130110237833B9044B13B10448AFF300800123AF
S1130120237010BD6C11002000000000308400001A
S113013008B5034B1BB103490348AFF3008008BD66
S1130140000000007011002030840000A3F5803A04
S1130150704700BF174B002B08BF134B9D46FFF79A
S1130160F5FF00218B460F461348144A121A06F075
S1130170E3FF0E4B002B00D098470D4B002B00D013
S113018098470020002104000D000D48002802D0EB
S11301900C48AFF3008006F09DFF2000290006F014
S11301A04FFD06F083FF00BF0000080000000000C0
S11301B000000000001000206C1100208C7500204D
S11301C0000000000000000010B5114C114AA261AB
S11301D00323C4E90433104BE36122664FF48063C4
S11301E00E4A0F492362626600231022E01DA362B7
S11301F06362E3622367E3666367A26606F0A4FFB3
S11302000849204606F0A0FF2023A37110BD00BFBB
S11302108811002074710000401200203012002068
S11302207D710000817100002DE9F84FDFF87C80BA
S113023098F800308246894616460BB9FFF7C4FF8A
S1130240182707FB0A873D6FD7F86CB05D452BD99B
S1130250BC6E796E641BB44228BF344629444846B8
S1130260224606F05BFFBB6E2544A144361BAB421D
S113027008BF0025ABEB0502964228BF164656B1CF
S1130280182303FB0A833246596E4846294406F074
S113029045FF3444354424B1182000FB0A88C8F8CB
S11302A070502046BDE8F88F0024E3E78811002051
S11302B02DE9F041164C1E4623780546884617461C
S11302C00BB9FFF781FF2369AB421DD9EFF3118C02
S11302D04FF0200181F3118865B1182005FB00035C
S11302E0E21844F80380576000FB054200231662BD
S11302F093625362182000FB0544069BE3628CF36F
S113030011880020BDE8F0814FF0FF30FAE700BF0C
S1130310881100202DE9F843144D1F462B7806461A
S1130320894690460BB9FFF74FFF6B69B34219D961
S1130330EFF311824FF0200181F3118846B11824A4
S113034004FB0654C4E918980023A7662367E366F0
S1130350182000FB0655089B6B6782F31188002068
S1130360BDE8F8834FF0FF30FAE700BF88110020A2
S1130370F0B400EB4003DFF8800000EBC30000F1B1
S113038018063069F768756887422ED3B368DC1B9A
S1130390631E934212D37D19D01900BF11F8013B9B
S11303A005F8013B013A05D011F8013B05F8013B82
S11303B0013AF3D1F0600120F0BC7047C0189042BC
S11303C017D37819121B11F8013B00F8013B013CCB
S11303D0F9D1141C05D011F8013B05F8013B013A91
S11303E0F9D1F4600120F0BC7047C01B0138904281
S11303F0D1D20020F0BC70478811002030B5002312
S1130400CC5C74B99A4228BF1A46FE2AD4B20AD8E0
S1130410034603F8014B581E8C18A1420AD19818C0
S113042030BD0133ECE7FF234470140A0370847079
S1130430C31CF0E711F8015B00F8015FEDE7000071
S11304402DE9F743002580460F4691461E460F4985
S11304500F4A00954FF480630120FFF729FF0D4CEC
S11304600D4A0A49009508230120FFF753FF4FF076
S113047080532361094B5B68E360C4E90187C4F8D6
S113048020906662257003B0BDE8F0838871000097
S1130490741600204C16002040160020001000E0C6
S11304A0014B1861704700BF4C160020034B1B6AB8
S11304B013B15B6803B11847704700BF4C160020A6
S11304C0024B1B69C01A8008704700BF4C160020FD
S11304D0044B10B51C6824B1E36803B19847246940
S11304E0F9E710BD581B002010B5EFF311844FF04D
S11304F0200181F31188094B09481B787F2B89BFA0
S1130500084907490B71053188BF012301F8013BF4
S11305101B2200F0ABF884F3118810BD48160020AC
S1130520781A0020741A002038B52A4C0120207053
S1130530EFF311854FF0200181F3118826490A2237
S1130540FFF716FF85F311880A2000F035F9EFF361
S113055011854FF0200181F31188204861687F29BB
S1130560CAB200F1010320D80270A0687F28C2B289
S113057003F1010120D81A7022697F2AD3B222D84C
S11305800B7002234B7015481822194400F06EF8C2
S113059085F31188636A03B1984700F06BF9FFF79C
S11305A085FFBDE83840FFF79FBF62F07F0203F884
S11305B0012CC9091846D2E762F07F0201F8012C28
S11305C0C0090B46D2E763F07F0301F8013BD2096F
S11305D0D3E700BF4C16002090710000781A002069
S11305E007B501220DF107011046FFF71DFE002893
S11305F019DD9DF80730072B08D84BB1023B052BBA
S11306000FD8DFE803F01316191C1F22802B1FD00C
S11306101B0608D501220DF107011046FFF704FE61
S113062001E0FFF781FF03B05DF804FB00F03CF943
S1130630F9E700F01FF9F6E7FFF738FFF3E700F0FA
S11306404BF9F0E7FFF750FFEDE7FFF741FFEAE76B
S113065001220DF107011046FFF7E6FD0028E2DD57
S11306609DF8070000F0DAFADDE700002DE9FF410C
S11306704E4C2378012B06460F46154623D11F2DD9
S11306806DD9BB1B7F2BDAB281BF62F07F02DB091D
S113069006F8013C06F8022C8EBFB31E06F1FF33A8
S11306A006F8012C7F2DEAB281BF62F07F02ED09CA
S11306B003F8015C991E8EBF03F8022C03F1FF318D
S11306C003F8012C55E03BB3022BD8D10123626916
S11306D08DF804300DF105007F2AD3B200F1010139
S11306E02BD80370324BD3F80480E368A8EB0303E0
S11306F07F2BD8B201F1010226D8087001A9521A41
S11307000120FFF735FE30B32378C4F80C80013B99
S113071023702378012BB2D0264BD3F88420D3F84E
S113072088309A4206D0A57825B90123A370FFF733
S113073057FFA57004B0BDE8F08163F07F0301F8B2
S1130740013CD2090846C7E760F07F0002F8010CBB
S1130750DB091146CCE7636901336361D9E7E369D7
S1130760EB40DB07D8D4172DEBB28AD8711E06F8FC
S1130770013C0F4B5D68E368EB1A7F2BD8B207F19D
S1130780010207D83870521A0120FFF7F1FD40B179
S1130790E560C1E760F07F0002F8010CDB09174651
S11307A0EBE7237801332370B6E700BF4C16002033
S11307B0001000E08811002010B50246EFF3118408
S11307C04FF0200181F3118803490846FFF74EFFDB
S11307D084F3118810BD00BF781A002038B5024692
S11307E00B46EFF311854FF0200181F311880A487D
S11307F07F2BDCB200F1010106D804700648FFF734
S113080035FF85F3118838BD64F07F0401F8014C8D
S1130810DB090846ECE700BF781A002070B50B46E8
S1130820EFF311854FF0200181F31188104E7F2BD7
S1130830D9B206F101040DD831707F2AD3B204F184
S113084001010ED8024623700948FFF70FFF85F314
S1130850118870BD61F07F0104F8011CDB09264694
S1130860E5E763F07F0301F8013CD2090C46E4E7B5
S1130870781A002008B50A4B1B6A4BB11B683BB1C0
S11308809847BDE808400A4601460D20FFF7C6BF59
S1130890044B0C205968BDE80840FFF79FBF00BF18
S11308A04C160020001000E038B5EFF311854FF02E
S11308B0200181F31188064C237833B105490B22BA
S11308C00846FFF7D3FE0023237085F3118838BD53
S11308D04C160020781A002070B5EFF311854FF004
S11308E0200181F311881C4C1C4861687F29CAB21D
S11308F000F101031AD80270A0687F28C2B203F184
S113090001011AD81A7022697F2AD3B21CD80B703D
S113091002234B70114818221944FFF7A7FE85F3F0
S11309201188636AB3B1BDE87040184762F07F0272
S113093003F8012CC9091846D8E762F07F0201F8D0
S1130940012CC0090B46D8E763F07F0301F8013B93
S1130950D209D9E770BD00BF4C160020781A0020D8
S113096070B50446EFF311854FF0200181F311882F
S11309702F4E036832692F489B1A9B087F2BD9B2EC
S113098000F1010231D80170A1687F29CBB202F1D4
S1130990010031D8137061682022FFF72FFD09226E
S11309A001462448FFF762FE2368326921489B1AF6
S11309B09B087F2BD9B200F1010224D80170E068B2
S11309C07F28C3B202F1010124D8137022697F2A5F
S11309D0D3B226D80B7000234B701648152202316F
S11309E0FFF744FE85F3118870BD61F07F0102F8C2
S11309F0011CDB091046C1E763F07F0300F8013CEA
S1130A00C9090246C1E761F07F0102F8011CDB0954
S1130A101046CEE763F07F0301F8013CC0090A46A3
S1130A20CEE763F07F0301F8013BD209CFE700BFB3
S1130A304C160020781A002038B5EFF311854FF0DA
S1130A40200181F31188074C014680222046FFF7DC
S1130A50D5FC0E2201462046FFF708FE85F31188D7
S1130A6038BD00BF781A002010B5EFF311844FF0A1
S1130A70200181F31188044911220846FFF7F6FD8D
S1130A8084F3118810BD00BF781A002010B5EFF36D
S1130A9011844FF0200181F311880C4B0C4A1B691F
S1130AA0C01A80087F28C3B202F1010107D813706D
S1130AB007480822FFF7DAFD84F3118810BD63F0BC
S1130AC07F0301F8013CC0090A46EBE74C160020FD
S1130AD0781A002010B5EFF311844FF0200181F350
S1130AE011880C4B0C4A1B69C01A80087F28C3B2BA
S1130AF002F1010107D8137007480422FFF7B6FD7D
S1130B0084F3118810BD63F07F0301F8013CC00930
S1130B100A46EBE74C160020781A002010B5EFF3D4
S1130B2011844FF0200181F311880C4B0C4A1B698E
S1130B30C01A80087F28C3B202F1010107D81370DC
S1130B4007480622FFF792FD84F3118810BD63F075
S1130B507F0301F8013CC0090A46EBE74C1600206C
S1130B60781A002038B50B46EFF311844FF02001BA
S1130B7081F31188124A134D1269801A80087F2864
S1130B80C1B205F101020DD829707F2BD8B202F150
S1130B9001010ED810700B480722FFF767FD84F39C
S1130BA0118838BD61F07F0102F8011CC0091546A7
S1130BB0E5E760F07F0001F8010CDB090A46E4E791
S1130BC04C160020781A002038B50C46EFF3118536
S1130BD04FF0200181F311880E4B0F491B69C01A95
S1130BE083087F2BDAB201F101000CD80A70214688
S1130BF08022FFF703FC192201460748FFF736FD60
S1130C0085F3118838BD62F07F0200F8012CDB09FE
S1130C100146E6E74C160020781A002038B51B4B35
S1130C201C6884B938BD2469002CFBD00133984278
S1130C30F9D8EFF311854FF0200181F311887F2853
S1130C4004D8134B06E000230246F0E7114B0122BF
S1130C501871053303F8012BA1687F29CAB203F187
S1130C6001000CD81A7021688022FFF7C7FB1622F6
S1130C7001460748FFF7FAFC85F31188D2E762F0D2
S1130C807F0200F8012CC9090346E6E7581B00203F
S1130C90781A0020741A002038B5EFF311854FF04C
S1130CA0200181F31188094C014680222046FFF778
S1130CB0A5FB0123037000234370811C1A222046E4
S1130CC0FFF7D4FC85F3118838BD00BF781A0020E3
S1130CD008B50548FFF7B0FE0448FFF7ADFEBDE8D0
S1130CE0084000F0D1B800BF9A710000CE71000036
S1130CF010B500F069FA044600F066FA054B064A9E
S1130D0001462046FFF79CFBBDE810404FF0005021
S1130D10FFF7C6BBD10C00008472000008B502F0D6
S1130D206CF8BDE8084004F04FBB10B5044602F06F
S1130D3019F920B92046BDE81040FFF7EFBE10BDF9
S1130D4010B5044602F00EF920B92046BDE8104063
S1130D50FFF7C0BE10BD10B5044602F003F928B970
S1130D6020460421BDE81040FFF7FCBE10BDF0B5DD
S1130D7087B007460E4615460021142201A81C46DA
S1130D8006F0DAF90C9B059301A8CDE90176CDE9CB
S1130D900354FFF7E5FD07B0F0BD00002DE9F0476F
S1130DA0DDF8209005460E461746984602F0DAF81C
S1130DB0E8B910490C683F2C04D9BDE8F0470E4847
S1130DC0FFF76ABF0D48142262438318013485502B
S1130DD0C3E90167C3E903890C604346CDF8209059
S1130DE03A4631462846BDE8F047FFF7C0BFBDE8A4
S1130DF0F08700BF601B0020DF7100006427002023
S1130E0073B50A4C0A4E00253368AB4204F114044E
S1130E1001D802B070BD54F8043C009354E90501B4
S1130E2054E90323FFF7A3FF0135EDE7642700200E
S1130E30601B002070B50C46064611462046154638
S1130E40FFF7C2FE2046FFF73BFB01463046FFF7A3
S1130E50C5FC0A490B68FF2B04D9BDE8704008485B
S1130E60FFF71ABF074E0C225A43B018B45001338F
S1130E700022456082600B6070BD00BF5C1B0020D7
S1130E802F720000641B0020F8B5094C094E0025A0
S1130E9001273368AB4200D8F8BDA36823B9D4E96D
S1130EA00001FFF791FEA76001350C34F1E700BFA4
S1130EB0641B00205C1B002008B5042201230F21C1
S1130EC0032001F05DFD002008BD00002DE9F04184
S1130ED01A4E0446884617460FCE86B06D460FC597
S1130EE096E8030085E8030015482568012100F011
S1130EF0DDFA6068012100F0D9FA617B207B0023D0
S1130F00042201F03DFD617A207A0023042201F0DD
S1130F1037FD28466946CDF80880ADF8107001F019
S1130F2071FE237CA27B1B0643EA0223AB670020ED
S1130F300A236B6706B0BDE8F08100BF8C72000025
S1130F4000350A0070B506680C468D18AC4201D114
S1130F50002070BD14F8011B304601F0ADFEF5E72A
S1130F60026813699B06FCD57047000013B504465C
S1130F7005F026F8247B00230122CDE90032640029
S1130F80034AB0FBF4F1034804F07CFF02B010BD47
S1130F90990F0000642C0020024B4FF40052C3F858
S1130FA0A820704700A0004073B50F4B0F4E4FF4BC
S1130FB08045C3F89C500446407B05F061F9042346
S1130FC002220DF106013046ADF80630FFF7BAFFF4
S1130FD03046FFF7C5FFA07B05F052F9044B002013
S1130FE0C3F89C5002B070BD00A000460010002061
S1130FF000A0004438B5044601211248124D00F007
S113100055FAA16811480022FFF760FF002304226B
S11310100E21032001F0B4FC002304220D2103203F
S113102001F0AEFC94E80F0085E80F00084B0122A4
S113103020461A70FFF79AFF2046FFF7B5FF0020FD
S113104038BD00BF00350A00842C002000100020A9
S1131050802C00202DE9F74F0688DFF8A4B09846CD
S113106003795E43254B14464FF48042C3F89C2019
S11310700134A4B20546407B0F4605F001F9230272
S113108043F001031E48ADF8063002220DF10601BB
S11310900134FFF757FF2402F610A4B24FF0000901
S11310A008F1FF3AC1450ED11548FFF759FFA87B57
S11310B005F0E6F8134B4FF480420020C3F89C205F
S11310C003B0BDE8F08F394632465846FFF73AFF81
S11310D0CA4514BF44F0FF034FF6FF7302220DF11B
S11310E00601584604F58074ADF806303744FFF71E
S11310F029FF09F10109A4B2D4E700BF00A000460A
S11311000010002000A00044034B04481B78002B6F
S113111008BF0020704700BF802C0020842C0020D2
S11311201FB5054B0FCB6C4684E80F002046FFF734
S113113061FF04B010BD00BFA4720000FEE7000010
S113114008B500F059F8064B0649074A8B4201D30B
S1131150FFF700F852F8040B43F8040BF6E700BF5E
S1131160001000206C1100203884000000487047F3
S1131170005A6202104AD2F8943003F00703023B8B
S1131180032B13D8DFE803F00C14020E0B4B1B687F
S1131190D2F80001C0F304200130B3FBF0F0704733
S11311A0074BF4E7074B1B685B08F1E7054BEEE7D9
S11311B04FF40043ECE700BF00400E402010002035
S11311C0181000201C10002008B5FFF7D3FF054BB2
S11311D0D3F80831C3F308230133B0FBF3F0024B17
S11311E0186008BD00400E4014100020014B186820
S11311F0704700BF18100020044B054A9A60D3F8CA
S1131200882042F47002C3F88820704700ED00E0A3
S1131210000000004FF4004070474FF47A707047AC
S1131220014B1868704700BF2010002070B50546B8
S11312300E46144600F07AFE296881EA040202EAA6
S113124006044C402C60BDE8704000F073BE000002
S1131250B0F1804F38B504460D4606D01D4B984278
S113126003D01D48A22100F081F82B693F2B03D93C
S11312701948B62100F07AF8EB683F2B03D91648D9
S1131280B72100F073F86B683F2B03D91248B821DB
S113129000F06CF86B682A781B0643EAC27343F4C7
S11312A000432360EA682B7A43EA0243A3622A6973
S11312B06B7A43EA0243E362AA7A084B43EA027375
S11312C0636004F1424404F5801464012B7D2360BF
S11312D038BD00BF00040040B472000000FD0004EB
S11312E0B0F1804F13B50A46044608D0074B984224
S11312F005D001910648F52100F038F8019AFF2144
S1131300201D02B0BDE81040FFF790BF000400406C
S1131310B4720000B0F1804F10B5044607D0064BFC
S1131320984204D0054840F21B1100F01FF82368CE
S113133023F00103236010BD00040040B4720000D8
S1131340B0F1804F10B5044607D0064B984204D044
S113135005484FF49C7100F009F8236843F0010339
S1131360236010BD00040040B4720000FEE70000DA
S11313700C4B984210D90C4B984210D902220123ED
S11313800A490B640A49D1F8003123F0807343EA17
S11313900263C1F80031704700221346F0E70122CE
S11313A0FBE700BF0048E8010090D0030000C843F9
S11313B000400E4038B5114B5B68114B00221C46AF
S11313C0C9B21D798D4202D11D68854212D2013203
S11313D0052A03F10803F4D10A4841F23A41FFF720
S11313E0C5FF032205494B6823F0407343EA0263B7
S11313F04B6038BD04EBC2025279F3E700000E40A3
S1131400DC730000E47200001F2810B5044604D900
S1131410034840F22F11FFF7A9FF0120A04010BD9F
S11314204773000038B5074C41F67133256C2364CB
S1131430FFF79CFE0021FFF7BDFF0DB100232364DD
S113144038BD00BF00000E40044BDB6B5B0604D4C8
S1131450034AD2F8C830002BFBD1704700300E404D
S11314600000C64308B5FFF7EFFF024B5868C0F30E
S1131470014008BD00300E40044BD3F84421D2078C
S113148003D4D3F840211042FBD1704700400E40F2
S113149038B5054C41F67133256C2364FFF78AFF98
S11314A00DB10023236438BD00000E4038B5C0F3ED
S11314B00323013B092B24D8DFE803F02A2D23233F
S11314C0051619231C20154C0023C0F3043513B151
S11314D01846FFF7D1FF04F1424404F5801405EBEC
S11314E0C404A400216038BD0D4C0123EDE70D4C6C
S11314F01023EAE70C4C4FF48033E6E70B4C00234F
S1131500E3E7BDE838400A4841F6D711FFF72EBF9C
S1131510084C0023D9E7084C0023D6E7B0400E401E
S1131520E0400E40E8400E40F0400E4050410E4076
S1131530E472000000400E40C0400E4008B5C0F305
S11315400313013B092B60D8DFE803F0050B0F19E7
S11315505F5F1F233C532E4BD3F80001C0F30420DC
S113156008BD2B4BD3F81401F8E7294BD3F800013D
S1131570C0F300600130FFF747FF0138F0E7244B68
S1131580D3F80C01C0F30820EAE7214BD3F8080193
S1131590F8E7204B984209D01F4B98420CD041F6F3
S11315A07B311E48FFF7E2FE0020D9E7184BD3F841
S11315B0200100F00F00DEE7154BD3F82001C0F343
S11315C00110D8E7164B984208D003F5B01303F581
S11315D08053984206D041F69F31E2E70C4BD3F892
S11315E02801ECE70A4BD3F82801C0F301200430AA
S11315F0C1E70C4B984205D1054BD3F8300100F0FC
S11316000300ADE741F6AE31CBE741F6D331C8E78D
S113161000400E408006160080162E00E472000082
S113162090171A00A009140008B5FFF787FF0130CE
S113163008BD000000F00F00013808B5072844D8A1
S1131640DFE800F0040F1943232D4335264BD3F86C
S1131650943003F00703023B052B3DD8234AD05CAA
S113166008BD214BD3F8803003F00703013B032B63
S113167034D81F4AF3E71C4BD3F8843003F0070334
S1131680013B032B2AD81B4AE9E7174BD3F88830D0
S113169003F00703013B032B20D8174ADFE7124B63
S11316A01B6F13F0010F0CBF07200920D8E70E4B66
S11316B0D3F85C3103F03003202B11D0302B11D040
S11316C0102B14BF01200720CAE70C4841F62771EC
S11316D0FFF74CFE0020C3E70520C1E70120BFE768
S11316E00420BDE70820BBE700400E40AD730000B6
S11316F0B3730000B7730000B3730000E47200001A
S113170038B52C4B984205460AD02B4B984207D04B
S11317102A4B984204D02A4841F23A51FFF726FE58
S11317202846FFF787FF234B9D42044611D0224BE6
S11317309D4212D0214B9D4213D1224BD3F88040BD
S113174004F00704042C2DD8DFE804F02A11151D39
S113175019001C4BD3F88440F2E71A4BD3F88840A5
S1131760EEE7174841F26951FFF700FEEAE7BDE8EA
S11317703840FFF74FBDBDE83840FFF751BDBDE825
S11317803840FFF74ABDFFF7F5FC0E4B0446D3F88B
S11317900001C0F300600130FFF736FEB4FBF0F443
S11317A0204638BD064841F2BB51FFF7DFFD002457
S11317B0F6E700BF030020000500240002001E001D
S11317C0E472000000400E4038B500F47813B3F51D
S11317D0B01F05467FD02ED8B3F5402F69D011D85D
S11317E0B3F5802F54D006D843B1B3F5003F5AD097
S11317F041F607311AE0B3F5202FF9D1BDE838409E
S1131800FFF7B8BCB3F5801F00F0A280B3F5A01FAA
S113181057D0B3F5602FEBD15B48FFF70BFF0728D8
S113182000F096800928E9D041F2FC215748FFF7DF
S11318309DFD002036E0B3F5381F5AD013D8B3F518
S1131840001F5FD00AD8B3F5D01F5DD0B3F5F01FE9
S1131850CED14F48BDE83840FFF752BFB3F5101F53
S1131860C6D14C48F6E7B3F5481F57D0B3F5781FF7
S113187000F08280B3F5401FBAD14748FFF740FF1C
S1131880464B0446D3F82801C0F3012004302BE072
S1131890FFF770FC414BD3F80C31C3F30823013339
S11318A0B0FBF3F038BDFFF765FC3C4BD3F80831CF
S11318B0F3E7FFF75FFC394BD3F81431C3F3042388
S11318C0EDE73448FFF71CFF344BD3F8303103F015
S11318D00303D840E6E72E48FFF712FF2F4B0446D8
S11318E0D3F8200100F00F00FFF78EFDB4FBF0F0F9
S11318F0D8E72748FFF704FF284BD3F82031C3F378
S11319000113E6E72448A5E72348FFF7F9FE234B34
S11319100446D3F82801C0F30110E5E72048FFF797
S113192089FE0138072824D801A353F820F000BF0A
S113193033180000731900007319000057190000D0
S11319407319000073190000511900005F19000099
S1131950144B1868A6E7BDE83840FFF747BCFFF70B
S113196009FC0E4BD3F80031C3F3042303FB00003E
S113197098E741F2333159E7FFF7FCFB0446284668
S1131980FFF752FEB2E700BF06000E00E47200004B
S113199002001E00050024000300200000400E4049
S11319A0B800320024100020013838B50C46032852
S11319B064D8DFE800F002441A2FB1F5007F04D3A5
S11319C0324842F22571FFF7D1FC314AC4F30804CE
S11319D0D2F86838002BFBD12E4A136A23F4FF7324
S11319E023F001032343136238BD7F2904D9274818
S11319F042F23271FFF7BAFC254A04F07F01D2F8B3
S1131A006038002BFBD1234B1C6924F07F040C436A
S1131A101C61E9E77F2904D91C4842F24D71FFF7A4
S1131A20A5FC1B4A04F07F01D2F86438002BFBD1DB
S1131A30184B9C6924F07F040C439C61D4E7154D3A
S1131A40D5F890305B0704D5104842F25D71FFF77A
S1131A508DFC6B6A23F0300343F010036B62C4F314
S1131A60C311CB1C2A6B0C490F2B01EA020128BFBE
S1131A700F23214341EA03712963B5E7BDE83840E8
S1131A80024842F27771FFF771BC00BFE4720000B4
S1131A900020C84300400E4000F8FF0F022810B594
S1131AA00C4604D0144842F28F71FFF75FFC134BCD
S1131AB05B6A13F0300F1BD0202C16D0302C17D0BB
S1131AC0B4B10D4842F2AA71FFF750FC0C4B0B4A1B
S1131AD0D2F8901033EA0101FAD15B024ABFD2F87E
S1131AE0A0000120C0F3802010BD4FF40003EEE7F6
S1131AF04FF44003EBE700BFE472000000400E40E7
S1131B00FF33E107022808B50CD129B1094B4FF482
S1131B108060C3F8A80059664AB1BDE808400220B5
S1131B20FFF7BCBF044842F2E071FFF71FFC01203D
S1131B3008BD00BF00400E40E472000004282DE9F7
S1131B40F04704460F4691461FD83D4B3D4A13F8D3
S1131B5000A03D4B13F80080F1B93C4B33F8103032
S1131B601366012303FA08F8D2F8903013EA080F39
S1131B70FAD1B9F1000F5AD00125324A05FA0AF513
S1131B80D2F890302B42FBD151E0BDE8F047304809
S1131B9042F27461FFF7EABB2E4B022833F810605F
S1131BA047D1536A13F0300F43D12B4BDB6B5A05EB
S1131BB004D4274842F28361FFF7D8FB214A536AD1
S1131BC0DB0705D5536A23F0300343F01003536257
S1131BD0224D1C4BA8441E664FEA8808D8F80030F2
S1131BE0002BFBD0B9F1000F21D05544AD002B6878
S1131BF0002BFCD0022C1AD1CFB1124F796A11F00C
S1131C00010118D0012220212046FFF77BFFD7F8DD
S1131C109C40012200210220FFF790FFC4F30A0137
S1131C200220FFF7C1FE3E662B68002BFCD0BDE806
S1131C30F0870027CCE72046FFF730FFE7E700BF37
S1131C40BB73000000400E40C0730000D07300005E
S1131C50E4720000C673000000300E408004F210ED
S1131C60112838B50C460FD000F00F0001380728B2
S1131C7000F2EB80DFE810F0240066009A00E9002F
S1131C807D00B400E900C200042912D1FFF7AEFAC6
S1131C900546A8B10021284600F056FA023C0A2C59
S1131CA045D8DFE804F04A473137444444443D0F03
S1131CB04D00052904D1664B1D68664B9D42E9D849
S1131CC00025EBE70320052401221146FFF736FF28
S1131CD0FFF7A8FB0DB1FFF7B7FB5F4B5C67FFF79E
S1131CE073FA0446FFF746FAFFF742FBFFF7BAFB25
S1131CF001462046FFF7CCFB002D5DD1284601218B
S1131D00BDE8384000F020BA5448FFF731FB022008
S1131D100446D9E75148FFF72BFB01240320D3E7FE
S1131D2041F6E871BDE838404D48FFF71FBB41F666
S1131D30ED71F7E701200324C6E700200424C3E77C
S1131D400724C5E7062933D14548464D42F22C0104
S1131D50FFF70CFB424842F23C01FFF707FBFFF799
S1131D6009FAFFF705FB404B0122C3F808260323B9
S1131D7021E006293D4DEDD0013C092C2BD801A3CF
S1131D8053F824F0DD1D0000BB1D0000C91D000038
S1131D90D71D0000D71D00005F1D0000D71D0000E7
S1131DA0D71D0000D71D0000B51D0000304DE3E72E
S1131DB02C4DE1E704232B6038BD0122114600209D
S1131DC0FFF7BCFE0223F6E7012211461046FFF797
S1131DD0B5FE0123EFE742F26701A3E70023EAE738
S1131DE0072904D0092906D042F2F1019AE71A4BD7
S1131DF000221A67E0E7184B0122FAE74C1E072C71
S1131E001ED8DFE804F0201D1D161D1D0F0403223B
S1131E101149D1F85C3123F0300343EA0213C1F8CD
S1131E205C31C9E7012211460420FFF787FE012235
S1131E30EEE7012211460220FFF780FE0222E7E7C7
S1131E4042F24F116EE70022E2E742F2262169E7EF
S1131E501C100020002D310100400E400148E80113
S1131E60E472000080400E400010C84388400E40D9
S1131E7084400E4010B504461120FFF7DBFB042814
S1131E8004D1274842F20F51FFF770FA01220021D2
S1131E900220FFF753FE63781BB9A3780BB9E378EC
S1131EA023B11F4842F24B51FFF760FA237C012B08
S1131EB004D11B4842F25251FFF758FA194A217CC7
S1131EC0536A23F00103022908BF43F0010353625C
S1131ED0154B2178C3F8A014637AA18843EAC1237F
S1131EE0D362136BA07A217A03F07F630343E08803
S1131EF043EAC02343EAC11303310F2928BF0F214A
S1131F0043EA01731363A37B617B1B0143EA01333F
S1131F10E17B0B43217B43EA0143536310BD00BFC4
S1131F20E472000000400E400000C843EFF310804C
S1131F3072B6704700B962B67047EFF31180602340
S1131F4083F31188704780F311887047034B5868F6
S1131F50C0F30800003818BF0120704700ED00E00E
S1131F60EFF31083DB0706D4EFF311805F2894BFEF
S1131F70002001207047012070470000034BD86BFC
S1131F8080F04000C0F38010704700BF00300E4066
S1131F9038B542EA0323B3F5007F05460C463ED02C
S1131FA019D8B3F5807F36D00AD883B3012B21D05A
S1131FB01F4840F68E11FFF7D9F9002213461FE09F
S1131FC040F201129342F3D11A4BD3F824321A0E81
S1131FD0C3F3074314E0B3F5407F24D040F2013249
S1131FE0934210D040F201229342E1D1114BD3F835
S1131FF0283202E00F4BD3F82432C3F30722DBB2BA
S11320002B60226038BD0B4BD3F82832DFE7094B35
S1132010D3F81C32F1E7074BD3F81C32D7E7054B52
S1132020D3F82032E9E7034BD3F82032CFE700BFDF
S1132030047400000081E00F08B5FFF79FFF20B192
S1132040024AD2F8C830002BFBD108BD0000C643B9
S11320501A4B022810B5D3F830320C4612D003289C
S113206013D0012814BFDBB2C3F307231B0323F4EB
S11320707042ECB95AB140F61D111148FFF776F9D8
S1132080002010BDC3F30743F0E71B0EEEE70D4934
S1132090CA6E22F470421343CB660120F1E709496A
S11320A0D1F8EC2022F470421343C1F8EC30F4E789
S11320B0002AF4D040F62911DFE700BF0081E00FC9
S11320C00474000000300E40F8B504460F46FFF7D4
S11320D055FF78B3FFF7B0FF174B5B68C3F30143B9
S11320E09C4227D0154BD3F80061FFF743F8022C2C
S11320F005460FD1124BC6F3042606FB00069E428A
S113210004D9104840F23161FFF730F90221284622
S1132110FFF7BEF9C4F1020210239340064A13618B
S11321200FB1FFF789FF2CB921462846BDE8F840D6
S1132130FFF7AEB9F8BD00BF00300E4000400E40BE
S1132140002D31010474000013B50246FFF716FF99
S1132150C8B152B90D4B0191D3F80041FFF70AF809
S1132160C4F30422019902FB0002094B1B7843B11A
S1132170084B9A4205D8022002B0BDE81040FFF790
S1132180A3BF0020F8E702B010BD00BF00400E401E
S11321909A2C0020002D3101094942780B6823F460
S11321A0407343EA0223022A0B6008D1054B5B6AA1
S11321B09B0004D5044840F26D61FFF7D7B870471F
S11321C000300E4000400E4004740000224B4AF6DA
S11321D0E85210B5596B5A639A6FD207FCD41B6C42
S11321E013F003031EBF1D4A0124C2F8B44A8342FC
S11321F004D110B9194BC3F8B40A10BD032B00D095
S11322009BB9431E012B10D8134A4FF40023D36209
S1132210936FDB07FCD4136C23F0030343F0010337
S113222013640D4A536A1C03FCD50B4B9A6FD207F7
S1132230FCD41A6C22F0030202431A649A6F12F05F
S11322400102FBD10038054C18BF01200129C4F854
S1132250B40A08BF5A63D0E700300E400000C643FA
S11322602DE9F04FA0F5E16389B00024B3F5966F32
S1132270CDE90244CDE90444CDE9064406468A4644
S1132280934605D940F6EE215548FFF76FF8A3E0D1
S1132290B0F5E16F534B8CBF0122002249D1D3F832
S11322A01832C3F30721DBB2079104934FF4167578
S11322B04FF4966748E0BBF1000F0ED0D9F85C20CC
S11322C022F4FE4222F00202B6F5E16F42EA012254
S11322D018BF02200243C9F85C20BAF1000F26D0CF
S11322E020460021FFF7B4FE044610B940F64B31F6
S11322F0CAE701214046FFF7ABFE044610B940F699
S11323005331C1E7384A536EBD4238BF3D4623F4CA
S1132310FF73E72D23F0010328BFE725B6F5E16F2E
S113232018BF43F0010343EA4503536654E0012414
S113233052E0D3F81832190EC3F3074307910493FC
S11323404FF496654FF4E167DFF89C90D9F84C4060
S11323500192C4F30174234605A902A8FFF718FEED
S1132360D9F8EC30019AC3F30128434606A903A81F
S1132370FFF70EFE049BF01B079FF91A4143B1FBC4
S1132380F5F299182CBF012300238F421ED3EBB919
S1132390069A039FD31B4343B3FBF5F3FF182CBFEB
S11323A001230023BA4211D383B9059B029AA3EBFC
S11323B0020C00FB0CF0B0FBF5F555192CBF012005
S11323C00020AB4202D300283FF475AF044840F626
S11323D03C31FEF7CBFF0024204609B0BDE8F08F66
S11323E0047400000081E00F00300E40334A08B549
S11323F0136FD16C11F0010F03F0060344D0002BCE
S113240042D0132857D9143813288CBF102308231B
S11324102A49013BCA6C180322F47F4240EA032391
S11324201343CB64264BCA6C1B88C2F303222833A4
S1132430013202EB820003EB5303B3FBF0F3C86CED
S1132440013B072B28BF072320F0EE6040EA03631B
S113245043F48013CB641B4BB3F90030002B12DB25
S113246003F12800C0F34E030344500800EB42027A
S1132470B3FBF2F20B6D072A28BF072223F0700387
S113248043EA02120A6508BDD16C01F00101194347
S113249004D109280FD90A380928B6E7D26CD20723
S11324A002D50BB92728B0E7074840F69131FEF76B
S11324B05DFF0023ACE70423AAE700BF00300E4011
S11324C0962C0020982C0020047400000C4BD3F8A8
S11324D0803910B5044633B9012804D9094840F6B7
S11324E0AF31FEF743FF084A136F23F0070323437A
S11324F01367064BBDE810401888FFF777BF00BF8D
S11325000000C6430474000000300E40942C0020E8
S113251038B55A4B02229A639B6B03F00F03934224
S1132520044607D0564840F64B21FEF71FFF00250E
S1132530284638BD0389C82B04D9514840F6552193
S1132540FEF714FFA28823899A4204D94C4840F626
S11325505621FEF70BFFB4F90C30C82B04DD4848B4
S113256040F65721FEF702FF6378012B55D1A3886B
S1132570C82B04D940F65B214148FEF7F7FEE288F8
S113258042F210739A4204D93D4840F66821FEF79E
S1132590EDFEE3884A2B48D9B3F5FA7F47D340F6DA
S11325A0C312934294BF4FF000524FF0405233494C
S11325B0B4F90C00CB6C23F0405323F00103002842
S11325C0A8BF43F001031343CB64D1F8EC30A288D5
S11325D043F44073C1F8EC302A4B1A80CB6E43F0BD
S11325E08073CB66284BD3F8800900B10420FFF731
S11325F06DFF264B21891980254BB4F90C20A08846
S11326001A80FFF7F3FEA37BA3B1012B22D01C4851
S113261040F6CE01FEF7AAFE0FE0022BAFD1A3884D
S11326200A2BACD94FF42661A6E70022BFE74FF08E
S11326308052BCE7114B174A9A6501226088114603
S1132640FFF70EFE054640B90D4840F69F21FEF700
S11326508DFE6DE7094B104AEEE7084AD36B43F44D
S11326608063D3636078FFF7B1FDA37AA3F12002FE
S113267053425341044AC2F8943759E700300E409C
S113268004740000942C00200000C643962C002003
S1132690982C002077402057372110B70C4B02228A
S11326A010B59A63DA6B42F48062DA639A6FD207E8
S11326B0FCD403221A641B6C93420CBF0124002433
S11326C004D0044840F6DD31FEF750FE204610BD2C
S11326D000300E400474000038B50D46044618B3AB
S11326E0012824D0022825D0032826D004280ED07F
S11326F0052825D0831F012B09D9082823D00928B0
S113270023D00A2803D10723EB40DB0704D4104865
S113271040F21341FEF72AFE30200E4B01214443C0
S113272001FA05F51D5138BD40F2FF33ECE74FF6D1
S1132730C073E9E740F6FF73E6E74FF47F43E3E74E
S11327404FF6FF73E0E70F23DEE74FF44043DBE788
S1132750677400000CA0004638B50D46044618B353
S1132760012824D0022825D0032826D004280ED0FE
S1132770052825D0831F012B09D9082823D009282F
S113278023D00A2803D10723EB40DB0704D41048E5
S11327904FF47971FEF7EAFD30200E4B01214443DA
S11327A001FA05F51D5138BD40F2FF33ECE74FF651
S11327B0C073E9E740F6FF73E6E74FF47F43E3E7CE
S11327C04FF6FF73E0E70F23DEE74FF44043DBE708
S11327D0677400000CA0004470B505460E4614460C
S11327E0FFF7A4FB296881EA040202EA06044C40CC
S11327F02C60BDE87040FFF79DBB0000032838B58E
S113280004460D4607D9042808D0052803D0A0F1B2
S11328100803022B02D835F0011303D008487D21A8
S1132820FEF7A4FD3020604300F180402A464FF0BB
S11328300111BDE8384000F52040FFF7CDBF00BFCF
S1132840CB7400002DE9F0410E4615461F460446A0
S113285000285FD0012860D0022861D0032862D00C
S113286004280ED0052861D0831F012B09D908281C
S11328705FD009285FD00A2803D10720F040C3079E
S113288003D43748BF21FEF771FD86EA050333F010
S1132890030303D03248C121FEF768FD072D06F07B
S11328A003064FF00F0149D84FEA85082D4804FA72
S11328B008F201FA08F1FFF78FFF03212A4806FA0C
S11328C008F201FA08F1FFF787FF1F2D03D9274803
S11328D09121FEF74BFD264C2C44A4001F2D2760AC
S11328E003D922489121FEF741FD9DF81830C4F820
S11328F08030204A0123AB401F2DC2F8243403D971
S11329001A489121FEF732FD9DF81C30C4F80033BB
S1132910BDE8F08140F2FF30B0E74FF6C070ADE79C
S113292040F6FF70AAE74FF47F40A7E74FF6FF7029
S1132930A4E70F20A2E74FF440409FE7A5F1080861
S11329404FEA88080C4804FA08F201FA08F1FFF784
S113295043FF0321094806FA08F201FA08F1B2E735
S1132960CB74000000A4004008A400402F750000B0
S11329708020851000A0004004A400400CA4004066
S1132980F8B50D4616461F460446D8B301283CD078
S113299002283DD003283ED004280ED005283DD07F
S11329A0831F012B09D908283BD009283BD00A28CA
S11329B003D10723EB40DB0704D4274840F21D1161
S11329C0FEF7D4FC26B1294620467FB3FFF784FEE8
S11329D03020604300F18040072D00F5204028D8C6
S11329E04368AA000F21914023EA010306FA02F288
S11329F01343436076BB294620463FB3BDE8F84005
S1132A00FFF76ABE40F2FF33D4E74FF6C073D1E755
S1132A1040F6FF73CEE74FF47F43CBE74FF6FF73E7
S1132A20C8E70F23C6E74FF44043C3E7FFF794FE1C
S1132A30CEE7A5F1080382689B000F21994022EAA2
S1132A40010206FA03F313438360D3E7BDE8F840B9
S1132A50FFF782BEF8BD00BFCB740000022838B572
S1132A6004460D4603D911484C21FEF77FFC6B79CF
S1132A701F2B03D90D484F21FEF778FCAB786A78F9
S1132A809B0143EA82032A781343EA7843EA021358
S1132A902A7943EAC2236A7943EA0233AA790434DD
S1132AA043EA42432401024A135138BD927500009F
S1132AB000200440014B1860704700BF00008442AE
S1132AC0427801790378002A827870B514BF04260D
S1132AD00026002AC27814BF10250025002A427956
S1132AE04FEA023242EA012242EA0302837914BF26
S1132AF020240024002BC37942EA034343EA06035B
S1132B00027A43EA050314BF4FF400410021234332
S1132B10002A14BF4FF4003200220B431343014A2E
S1132B20136070BD0020044070B506460C4615467F
S1132B3022B90D484FF42271FEF718FC1CB90B485A
S1132B40FEF742FE04460A4B6D00013CB4FBF5F46B
S1132B5013EA04234FEA042504D0034840F2A521D4
S1132B60FEF704FC756170BDF67500004041050078
S1132B70070080FF38B51E4B1E4D984204460ED008
S1132B80A8420CD003F50063984208D003F5806393
S1132B90984204D0184840F22E41FEF7E7FB40F675
S1132BA0AA63E36041F20502002323606260134AD2
S1132BB0A3606361E364A26423666367A367E36756
S1132BC00B4B9C4209D0AC4207D003F500639C42F6
S1132BD003D003F580639C4201D1002323650023C5
S1132BE0AC42A36502D0064A944200D1E36538BDE5
S1132BF00000014000040140F6750000F9FF0100E7
S1132C00000C014038B52A4B984204460D4610D0BA
S1132C1003F5806398420CD003F58063984208D092
S1132C2003F58063984204D022484FF45671FEF7AE
S1132C309DFB2046FFF79EFFA97B2A8A2368002973
S1132C4042F0010214BF4FF48061002113430B438F
S1132C502A7D23602368002A14BF4FF0005200220B
S1132C6013432360AB7C1BB1EB7C43F08003A3656F
S1132C702B7B43F480536360D5E901122046FFF7B0
S1132C8053FF6B7B0BB11023E3606B7D1BB1236897
S1132C9043F480332360AB7DEA7D1B07120503F008
S1132CA0E04302F4E002134323662B78E36038BD6B
S1132CB000000140F675000003695B06FCD5416322
S1132CC0704700002DE9F047374FDDE908840646D8
S1132CD0154699468A4641B9082323704FF4D963AF
S1132CE0A360324B6760E360FEE75AB1531E1342A0
S1132CF008D00823237040F2CB63A3602B4B67609A
S1132D00E360FEE7FFF719F9002D08BF04254D45E0
S1132D1038BF4D46D6F808E06B1E13EA0E0FC5F116
S1132D20000202EA0E0208BF0025154409F1FF3330
S1132D30AA4413EA0A0FC9F1000202EA0A0208BF10
S1132D404FF0000902EB090372680132A2EB0E0195
S1132D50A3EB0E0E7145844615491AD2B8F1000F43
S1132D6002D09B1AC8F80030162540F22273C4E939
S1132D700231257067606046FFF7E5F840F2D763DB
S1132D80A3600A4B25706760E36000252846BDE810
S1132D90F087B360002323704FF4E563C4E9023184
S1132DA06760FFF7D0F8F1E75B760000EA76000091
S1132DB0D276000030B50C4685B011461D461BB9CD
S1132DC0039200F019F80399064801950023009333
S1132DD004220123002C18BF2046FFF773FF05B01F
S1132DE030BD00BF28100020024B00221A6002F000
S1132DF0CDBA00BF9C500020FEE702F0DFBA00000D
S1132E00014B1860704700BF9C50002070470000C1
S1132E102DE9F041044608B9FFF7EEFFFFF796F8F5
S1132E20194E1A4D074638B12023237040F2193346
S1132E30C4E902356660FEE7154B1B78012B08D008
S1132E4002232370666040F21D33C4E90235BDE8F5
S1132E50F081DFF8408098F80030F92B05D91E2363
S1132E602370666040F22233EFE7FFF766F898F8C4
S1132E700030013388F80030FFF765F8277066608A
S1132E8040F22D33E1E700BF04770000F77700003C
S1132E90585500205955002070B5044608B9FFF76D
S1132EA0ABFF264B1E78012E09D013232370244B2D
S1132EB0636040F2F633A360224BE360FEE7224BEB
S1132EC01B88022B09D8092323701D4B636040F231
S1132ED00143A3601B4BE360FEE71C4D2B784BB111
S1132EE01F232370164B636040F20443A360154B09
S1132EF0E360FEE7FFF734F848B11F232370104B5B
S1132F00636040F20743A3600E4BE360FEE701F009
S1132F105FFA0F4B0F4A18700F4B2E7018700C236A
S1132F2058430E4B1B5813600D4A136001F07AFB93
S1132F3002F06AFABDE87040FFF75EBF3A52002023
S1132F4004770000E17700008056002058550020E7
S1132F504F520020745600204E5200205852002038
S1132F607056002008B501F033FAA0F1400358422E
S1132F70584108BD30B14368C1F8F0308368DB685C
S1132F80C361704791F83030022B03D0072B05D072
S1132F90034B00E0034BC1F8F0307047024BFAE7F3
S1132FA087770000777700007E770000044BC1F834
S1132FB0F03018B1826802B1D368C361704700BFB2
S1132FC0877700000023C0E900330381704703685A
S1132FD010B533B901220281C1E9093301604160AE
S1132FE01CE0028991F833400132028193F83320C6
S1132FF0A2420CD85B6A002BF8D14B6243688B6207
S11330005962ECE7C1E909325162996206E09A6AB1
S1133010002AF7D1C1E909329962016010BDC36A7F
S11330205BB19A68526A4AB9C3E902221A8A013A20
S11330301A820023C0E90933C3627047D0E9092129
S113304011B991629A60F1E74A620AB9D960EDE771
S11330509162EBE738B5C56AAB685B6A4BB1FFF7C1
S1133060DEFFC562014605F10800BDE83840FFF700
S1133070AEBF38BD054B40220021013AC3E900111F
S1133080198103F10C03F8D1704700BF5852002096
S1133090F8B5044608B9FFF7AFFE964D6A68D2B199
S11330A02B68954E4BB92346296B94489200FFF741
S11330B081FE306023780BB1F8BD3360904B3268E9
S11330C01A60904A6B6813608F49904A9B001360A2
S11330D00A6813440B602A89B2B12346296B8C48D1
S11330E01201FFF767FE8B4B18602378002BE3D1A6
S11330F0894B8A4A18602B8913808349884A1B01AB
S113310013600A6813440B606A69002A27D02B698C
S1133110844E002B62D12346296B83489200FFF72B
S113312049FE30602378002BC6D1804B2A7E1A706A
S11331307F4BEA691A607F4B32681A606B69EA68F0
S113314064215A43B2FBF1F27B490A607B4A6E491F
S113315013607B4A9B0013600A6813440B606A6A1D
S1133160002A28D02B6A774E002B39D12346296BAD
S113317075489200FFF71EFE30602378002B9BD128
S1133180724B95F828201A70714B32681A606B6A7A
S1133190EA6864215A43B2FBF1F26E490A606E4A4E
S11331A0E96A13606D4A9B0013606D4A11605649C9
S11331B00A6813440B606B4E6B6B336002F0D8F9F2
S11331C002F0FEFD054668B101232370664B63607F
S11331D04FF4D773A360654BE3606DE73360A4E7F6
S11331E03360CDE702F0ECFE3368984209D209233C
S11331F023705D4B63604FF4D973A3605B4BE36052
S1133200FEE702F0DDFE3368594F984240F0D88063
S11332103D603268B2F57A7F07D90023002001218E
S113322003F0C2FD4FF47A754543524B524A1D6078
S113323000231370514A1370514A1360514A1360AA
S1133240514A1370514A1370514A2046137001F0C9
S1133250ADFE0A23B0FBF3F04E4B18602578002D29
S11332607FF42AAF274A136853B12549086838B157
S11332700146013B41F8045BFBD1116801F000FCFD
S1133280454B00251D7001F09BF8FFF7F3FE434BFF
S11332901D60434B1D80214B1B88002B40F09C80FC
S11332A0404A00231360404A1380404A1360404A56
S11332B01380404A1360404A2046138001F05CFBAF
S11332C02378002B7FF4F8AE204601F077F92378B9
S11332D0002B7FF4F1AE204601F08EFF2378002B03
S11332E07FF4EAAE00F0C2FBFFF790FD334B0122FE
S11332F01A70E1E63C100020A450002089770000F9
S1133300A8500020AC500020A0500020B050002055
S11333109C770000B4500020B8500020BC5000201E
S1133320C0500020CC500020AE770000C4500020D4
S1133330C8500020D0500020D4500020D850002085
S1133340DC500020EC500020C7770000E45000203F
S1133350F0500020F4500020F8500020FC500020D1
S1133360E8500020E05000200477000003780000BB
S113337004510020005100205855002059550020C8
S113338070560020745600204E5200204F520020E8
S1133390605500205C5500208256002034520020E5
S11333A038520020485200204C5200205052002035
S11333B05452002064550020685500203A520020E1
S11333C002F0FEFD2B4602460121002003F0ECFC36
S11333D03368584338601CE7204600F0F5FC237836
S11333E0002B3FF45DAF67E690F833300B490C22B5
S11333F0534330B5CA58CC1832B901252581C0E9E8
S11334000422C850606030BD25890135258100241F
S1133410026144615061C850F5E700BF5852002072
S113342090F833200B490C235A4330B58C588B1831
S113343034B901251D81C0E904448850586030BD69
S11334401A8901321A81002202615A6842611061AC
S1133450F4E700BF5852002010B5044690F833003A
S113346000F0C6FF084B94F833201B789A4220469C
S113347006D1FFF7D5FF2046BDE81040FDF755BC47
S1133480FFF7B2FFF7E700BF4E52002038B50C46F5
S113349091F8321007290546049807D802390529FE
S11334A006D8DFE801F0060605052525FF293AD1EF
S11334B038BDE267A4F88030606415B12046FFF798
S11334C0AEFD21462846FFF771FD94F83230032BF8
S11334D006D104F1580002F0ADFC08B1FFF78CFCF2
S11334E02046FFF7B9FF0023238684F83230DFE754
S11334F0E267A4F88030606415B12046FFF78FFDC1
S113350021462846FFF752FD94F83230072B06D1A6
S113351004F1580002F08EFC08B1FFF76DFC0023A3
S113352023860423E1E7BDE83840FFF765BCD0E912
S11335300032934210B50FD01C690021A24215BF7E
S11335406161C3E90412C3E90412C2E9043116BF7C
S1133550136102600460436010BD000070B504464E
S1133560D4E9043590F83300124A0C21BDB973B97B
S11335704143551853502B816B6000F04FFF0023DB
S1133580C4E904332046BDE87040FDF7E4BB48437A
S113359016183189013931815D611350EFE701FB60
S11335A000221189013911812B610BB95560E6E7BD
S11335B05D61E4E75852002013B5044670B1084B2E
S11335C01B78012B0AD10023CDE90033054A816F12
S11335D00346054802F08CFC044B1C6002B010BD8D
S11335E0605500208D3800000C5100200851002047
S11335F0F8B50446A8B1114B1B78012B11D1456FC6
S11336000F4E7DB90F4B1F6802F0DAFC32682B466F
S1133610511E0D461946E7FB0051284603F0C4FB32
S1133620A067F8BD02F0CCFC32680023511E0E46A0
S11336301946E5FB00613046F0E700BF6055002005
S1133640E05000205C5500202DE9F7435E4B1B78C9
S1133650012B00D0FEE75D4B93F80080B8F1000F1A
S113366040F09680FEF769FC594F5A4C97F8009049
S1133670594D064600F0ACFE40280346387000F071
S11336808A800C20DFF85C814343B9F1400F58F87D
S11336900330236003D101F0B7F8AFF30080226850
S11336A02B68DFF844919A4218D1002001F0D4F934
S11336B0012802D0286801F079FF99F800303BB165
S11336C02068836F0BB9FFF793FF2068FFF774FF3F
S11336D0304603B0BDE8F043FEF735BC99F800303E
S11336E01BB3DFF80891D9F800309B6FEBB13B486E
S11336F001A902F021FC30B9D9F80030019A374809
S11337009A6702F097FBD9F800309A6F6AB993F878
S1133710330000EB400008EB8000FFF708FF3B7824
S11337200C22534358F8033023602268D2F8C43083
S11337300133C2F8C4302A4A1368013313603B785A
S1133740402B33D02B682268934215D0A3B101F0EB
S113375035FE2B68D3F8CC3098421FD301F02EFEEF
S11337602B68D3F8CC30C01A2A68D2F8D030C2F80B
S1133770C8001844C2F8D000246801F01FFEC4F841
S1133780CC0001F080FE3046FEF7DDFBBFF36F8F07
S113379003B0BDE8F083C4F80080CCE701F00EFE6E
S11337A02B68D3F8CC20D2431044DDE701F024F891
S11337B02C681CB101F002FEC4F8CC00FDF754F9EA
S11337C0AFF30080DDE700BF5855002059550020B5
S11337D04F52002074560020705600200C510020D7
S11337E078560020585200206055002008510020CF
S11337F02DE9F041044608B9FFF7FEFAFEF7A6FBEF
S11338001E4F1F4E38B12023237040F24533C4E9C4
S113381002366760FEE71B4B1B78012B08D002239E
S11338202370676040F24933C4E90236BDE8F08191
S1133830DFF8548098F800302BB91F232370676099
S113384040F24E33F0E7FEF778FB98F80050013D64
S1133850EDB288F800503DB1FEF775FB2D232370BF
S1133860676040F25633DFE7FEF76DFBFFF7ECFECF
S1133870257067604FF45873D6E700BF04770000E3
S1133880E9770000585500205955002038B50E4BF3
S11338901B78012B0D4616D1FEF74FFB0023AB67B7
S11338A00A4B1B6893F833300446094803EB43037F
S11338B000EB8300FFF73BFE2046FEF744FBBDE828
S11338C03840FFF7C1BE38BD6055002008510020C4
S11338D058520020F8B50C46FEF72FFB94F832300E
S11338E0013B0746062B48D8DFE803F0544704475A
S11338F05B47040094F83030042B08BFE36A4FF0B0
S1133900000608BF5D6AE667A4F8806018BF354604
S113391001F054FD60642046FFF781FB94F83230D7
S1133920032B31D1FFF798FD84F832604FF44073D4
S1133930238615B395F8333095F834209A421CD079
S113394094F833209A4218D1284600F029FC95F8BF
S11339503430834228BF0346D9B295F833308B42C2
S11339600BD0284601F0CAF92846FCF7A9FD95F8C2
S1133970332001462E20FCF751FF3846FEF7E3FAC8
S1133980BDE8F840FFF760BE072B04BF042384F8AA
S11339903230CBE7002384F832302046FFF75CFD59
S11339A0EBE7042384F83230E7E70000F7B5044678
S11339B00D4611B302F004FB114B1A680026571E82
S11339C046F1FF31E5FB00713346384603F0ECF96C
S11339D0CDE9006601460B4A234604F1580002F083
S11339E087FA08B1FFF708FA0323204684F8323037
S11339F003B0BDE8F040FFF7B1BD0223F5E700BF17
S1133A00E0500020D538000037B5144D0B46114660
S1133A102A6882F83030002382F83130104A127854
S1133A2004463AB10F4A104812680191936702F0B4
S1133A3001FA01992868FFF7B9FF64B1296804F114
S1133A400800CC62FFF7C3FA2968204603B0BDE83A
S1133A503040FFF78FBA2B68DC62F5E77056002020
S1133A6060550020085100200C510020774B1B7832
S1133A7082B0DBB28DF80530754B1B68DBB28DF874
S1133A800730744B1B78DBB28DF80530724B1B7812
S1133A90DBB28DF80530714B1B68DBB28DF8073053
S1133AA06F4B1B6ADBB28DF807306E4B1B78DBB2B1
S1133AB08DF805306C4B1B78DBB28DF805306B4B01
S1133AC01B88DBB28DF80630694B1B88DBB28DF89E
S1133AD00630684B1B78DBB28DF80530664B1B88CB
S1133AE0DBB28DF80630654B1B88DBB28DF80630EF
S1133AF0634B1B88DBB28DF80630624B93F8283099
S1133B00DBB28DF80730604B1B78DBB28DF80530E3
S1133B105E4B1B88DBB28DF806305D4B1B88DBB235
S1133B208DF806305B4B1B88DBB28DF806305A4BA0
S1133B301B88DBB28DF80630584B1B88DBB28DF83E
S1133B400630574B1B88DBB28DF80630554B5B8D26
S1133B50DBB28DF80730544B1B78DBB28DF805309F
S1133B60524B1B88DBB28DF80630514B1B78DBB20D
S1133B708DF806304F4B1B6ADBB28DF807304E4B85
S1133B801B78DBB28DF805304C4B1B88DBB28DF80B
S1133B9006304B4B1B88DBB28DF80630494B1B6853
S1133BA0DBB28DF80730484B1B78DBB28DF806305A
S1133BB0464B1B78DBB28DF80530454B1B78DBB2E6
S1133BC08DF80530434B1B78DBB28DF80530424B42
S1133BD01B78DBB28DF80530404B1B78DBB28DF8D7
S1133BE005303F4B1B78DBB28DF805303D4B1B880D
S1133BF0DBB28DF806303C4B1B78DBB28DF8053018
S1133C003A4B1B88DBB28DF80630394B1B88DBB28C
S1133C108DF80630374B1B78DBB28DF80530364B08
S1133C201B88DBB28DF80630344B9B8CDBB28DF8ED
S1133C300730334B1B88DBB28DF806309DF8053016
S1133C409DF806309DF8073002B070477C100020C4
S1133C5078100020741000202851002080100020CB
S1133C602C51002084100020585100208610002080
S1133C70881000208A100020901000208C10002052
S1133C808E1000205C51002092100020941000201F
S1133C9096100020981000209A1000209C100020FC
S1133CA09E10002090510020A0100020A21000209F
S1133CB0AC100020C0510020AD100020AE10002038
S1133CC0A4100020A8100020B2100020B010002082
S1133CD0B1100020B6100020B7100020B910002049
S1133CE0B8100020BA100020BC100020B41000202E
S1133CF0BE100020C0100020C2100020EC51002093
S1133D00C4100020054B064AC361002343611368B5
S1133D1083610BB9106070475861FBE78777000037
S1133D20345200202DE9F84F05460F4693461C46B1
S1133D300BB9FFF761F8FEF709F9DFF88490DFF8B3
S1133D408480064638B1202323705523C4E9023801
S1133D50C4F80490FEE73DB90A2323705823C4E94C
S1133D600238C4F80490FEE7FEF7E7F82C22314647
S1133D708246284603F0E0F90F4BC5F820B0C5E9A8
S1133D80003705F10800FFF71DF92846FFF7BAFFD1
S1133D900A4A13880133138029463A463720FDF72F
S1133DA049F85046FEF7CFF870232670C4E902386C
S1133DB0C4F80490BDE8F88F464C414738520020BF
S1133DC00A7800007D780000154BF0B51C68154B8F
S1133DD01E880025721E04F1100192B22B46AFB268
S1133DE0BA4213D8110104EB0212635053601381D9
S1133DF0D3600D4A1381D3809680146003700B4BFB
S1133E0043605D2383600A4BC360F0BD41E9041342
S1133E1021F8083C41F8043C01351031DFE700BFCC
S1133E20B8500020BC5000203C5200208A7800008A
S1133E30FC780000428910B582B1094B01681C6806
S1133E400C6041681960D988891AD980998811440D
S1133E5099800023C0E9003343818381104610BD5B
S1133E603C52002038B504460D461022002103F0D0
S1133E7063F9258138BD00002DE9F74F0C9C0646F7
S1133E808A4617461D460CB9FEF7B6FFFEF75EF8E4
S1133E9048B120232370864B636040F23313A36040
S1133EA0844BE360FEE74EB90A232370804B6360C2
S1133EB04FF49B73A3607F4BE360FEE7C7F30E03ED
S1133EC04BB1082323707A4B636040F23913A3602B
S1133ED0784BE360FEE73268774B9A4209D00C23B3
S1133EE02370734B636040F23D13A360714BE36036
S1133EF0FEE73FB2002F0CDBFEF732F848B11F2378
S1133F0023706B4B63604FF4A073A360694BE36051
S1133F10FEE76A4B93F80090B9F1010F1CD1FEF74C
S1133F200CF896F82830DFF89CB18046F3B9DBF83A
S1133F300030736286F828900DB1F26A2A609A6B99
S1133F40326240469E63FDF7FEFF00232370584B08
S1133F5063604FF4AA7305E002232370544B63603B
S1133F6040F24513A360534BE36014E0D6F8249069
S1133F70DBF80020914521D1FF2BDFF834914D4F20
S1133F800CD1FDF7E0FF1E232370C4F8049040F227
S1133F905D13C4E9023703B0BDE8F08F013386F83E
S1133FA028300DB1F36A2B604046FDF7CCFF232384
S1133FB02370C4F8049040F26913EAE7002F0BDA87
S1133FC0FDF7C1FF0DB100232B601D232370384B77
S1133FD063604FF4BB73C5E7394B1B785BB1FDF7E6
S1133FE0B2FF0DB100232B602D232370304B63608F
S1133FF04FF4C173B6E792F8331099F833308B421B
S11340000BD9484600F07AFE4846FCF759FA99F86D
S1134010332001462D20FCF701FC52460421304692
S1134020FFF7F2FC4046FDF78EFFFFF70DFBFDF7AF
S113403084FFDBF8003093F83120032A32D8DFE81C
S113404002F00213271D0DB15B6C2B60002323705B
S1134050174B63604FF4D073A360164BE36003B057
S1134060BDE8F04FFDF76FBF0DB15B6C2B602123F2
S113407023700F4B63604FF4D573EDE70DB100234C
S11340802B60222323700A4B63604FF4DA73E3E757
S11340900DB15B6C2B6031232370054B63604FF4CF
S11340A0DF73D9E70190FEF7A7FE0198D7E700BFB9
S11340B00B7900008B7900004D5554585855002059
S11340C05955002070560020054B064AC361002351
S11340D04361136883610BB9106070475861FBE753
S11340E087770000485200202DE9F04705460F4627
S11340F014460AB9FEF780FEFDF728FFDFF880902A
S1134100DFF88080064638B1202323705223C4E9A7
S11341100238C4F80490FEE73DB90A2323705523FE
S1134120C4E90238C4F80490FEE7FDF706FF342220
S113413031468246284602F0FFFF0F4B05F1080086
S1134140C5E90037FEF73EFF2846FFF7BDFF0B4ADF
S113415013880133138029463A462920FCF76AFE66
S11341605046FDF7F0FE6C232670C4E90238C4F80B
S11341700490BDE8F08700BF4D5554584C520020C0
S11341800B79000097790000836B00F138028B42B1
S1134190186A01D11060704703F120020346F6E764
S11341A0836B3F2003B970479A6822B192F8332099
S11341B0904228BF10461B6AF4E700002DE9F04F37
S11341C0054685B08B4614460AB9FEF715FEFDF781
S11341D0BDFEDFF89481604F40B12023237040F28C
S11341E05723C4E90237C4F80480FEE745B90A231B
S11341F0237040F25A23C4E90237C4F80480FEE76E
S1134200CBF30E0343B10823237040F25D23C4E9CA
S11342100237C4F80480FEE72A68504B9A4208D05B
S11342200C23237040F26123C4E90237C4F80480EC
S1134230FEE74B4B1B78012B0AD002232370C4F8F2
S1134240048040F26523C4E9023705B0BDE8F08F6D
S1134250DFF818A1FDF771FE6A6ADAF800309A42B5
S1134260814608D0FDF76FFE1B232370C4F8048039
S11342704FF41B73E7E701F0A1F895F8283002909A
S1134280013BDBB2E86285F828304BB14846FDF7C4
S11342905AFE23232370C4F8048040F27D23D2E71E
S11342A0DAF800002946FFF76FFFAE685EB96E6268
S11342B085F828604846FDF746FE2670C4F8048059
S11342C040F28A23BFE7DAF8001091F8333091F80E
S11342D034600393B34220D00846FFF761FFB04235
S11342E028BF3046039BC6B2B34216D20846FFF736
S11342F035F9DAF8000080F83360FCF7E1F832466B
S113430001462E20FCF78AFA304600F071F8DAF8FC
S11343100000FFF785F8134B1E70A968696201233A
S113432085F828308B6B2B62029B8D6300930023EE
S11343301A462846FFF7AAF84846FDF704FE1BF480
S1134340004F01D1FFF780F900232370C4F80480E3
S113435040F2AD2377E700BF7F7900004D555458F4
S1134360585500204E5200200B7900007056002052
S11343702DE9F341846B0546012714B902B0BDE869
S1134380F081D4F8208001F019F82146E062064655
S11343902846FFF7F9FEA16821B984F82810616264
S11343A04446EAE784F828708B6B23620023656235
S11343B01A468C6320460096FFF768F8F0E7000081
S11343C0024B0022C3E90022704700BF1C520020A8
S11343D008B5064B186828B9586801F009F8203068
S11343E0C0B208BD01F004F8FAE700BF1C52002077
S11343F01F28094A07D84FF0004323FA00F0136836
S11344000343136070470123C0F13F0003FA00F037
S113441053681843506070471C5200201F280A4BF1
S113442008D84FF0004222FA00F01A6822EA00028B
S11344301A6070470122C0F13F0002FA00F05A6886
S113444022EA00025A6070471C520020054B064ABB
S1134450C36100234361136883610BB91060704723
S11344605861FBE787770000645500202DE9F84F79
S113447005460F4693461C460BB9FEF7BDFCFDF7F7
S113448065FDDFF88490DFF88480064638B1202388
S113449023705823C4E90238C4F80490FEE73DB9F8
S11344A00A2323705B23C4E90238C4F80490FEE7AE
S11344B0FDF743FD2C2231468246284602F03CFE9D
S11344C00F4B2B6005F10800C5F820B06F60FEF7B4
S11344D079FD2846FFF7BAFF0A4A1388013313808F
S11344E029463A462F20FCF7A5FC5046FDF72BFD44
S11344F073232670C4E90238C4F80490BDE8F88F29
S113450053454D4168550020A5790000177A0000F5
S1134510F8B5064608B9FEF76FFCFDF70EFD1F4B14
S113452000251D801E4B1D601E4B1D601E4B1D81F2
S1134530FDF709FDFDF701FD1C4B1C68FDF703FDAC
S113454074B9FDF7FAFC1A4B1D68FDF7FCFC05BBBA
S1134550184B7360A423B3603570174BF360F8BD38
S1134560FDF7EBFCC4E93455C4F89850C4F8DC50AA
S1134570C4F8C450A4F8BE50A4F8C050074600F0D4
S11345801DFFA4F89050C4F8CC00D4F8EC40384691
S1134590D4E7FDF7D2FCAC85AD69D6E76E550020B3
S11345A06C560020BC5700203C5200207C56002052
S11345B050520020237A0000A97A000000B5104A66
S11345C0104900231370104A8BB013700322CDE9F5
S11345D00632CDE904330D4A0890126803920C4A5E
S11345E00C48126802920C4A126801920B4A127823
S11345F000920B4A00F04EFA0BB05DF804FB00BFCA
S113460070550020967A00006A550020D85000208A
S1134610D450002074550020D0500020C4500020F5
S11346203546000008B500F0C9FE014B186008BD0E
S1134630305200202DE9F04F85B06846FFF768FF3F
S1134640684600F0B3FC9DF8003005460BB1FEF758
S1134650D3FB5C4B18684FF00008A842C24642F2F4
S1134660107728BF0A20B5FBF0F500F0A7FE564EE0
S1134670814600F0A3FE3368984267D300F09EFEA3
S11346803468041BFDF759FC504BD3F800B0C3F851
S113469000A0FDF758FC4E4B9C425DD94D4B9C420B
S11346A05ED94D4B9C425FD34C4B9C4295BF4FF41B
S11346B07A7038460A2601260BFB06F3B4FBF0F4A5
S11346C0B3FBF4F39BB2BB42454A28BF3B4613807D
S11346D0444AFB1A9BB21380434A1188994203D27D
S11346E0B8F1000F00D01380DFF808B1FDF725FC06
S11346F0DBF80080FDF727FCB8F1000F37D1FDF798
S11347001CFCDBF80080FDF71EFCB8F1000F3BD168
S1134710364B1A78012A04D1684683F80080FFF7E3
S1134720F7FE00F04FFFFFF77DFF00F047FE304B30
S11347301A68A0EB0900824238BF18606A4600215B
S1134740284600F045FC4FF001088EE700F036FEE5
S11347503368DB431C1895E7012042F21076ABE77F
S11347600A204FF47A76A7E764200646A4E7FDF70B
S1134770E4FBD8F8D030C8E934A3FDF7E4FBFDF737
S1134780DCFBD8F8EC80B5E7D8F8D430B8F8C02012
S11347907343B3FBF4F39BB2BB4228BF3B469A423C
S11347A038BFA8F8C030A8F8BE3008F1E00208F11C
S11347B0E40140466B4600F041F8FDF7BEFBD8F833
S11347C0EC80A0E7C8500020305200202C5200207A
S11347D07F1A0600FF083D00005A6202FF83D717C4
S11347E0245200206C5500206E5500206A5500208C
S11347F06C5600207C56002008B500F0DFFD014B0C
S1134800186008BD2852002010B50A4C00F0D6FDEF
S11348102368984208D300F0D1FD2368C01A064AE1
S113482013681844106010BD00F0C8FD2368DB4312
S11348301844F4E7285200202C5200202DE9F041BE
S113484005460F4616461C460BB9FEF7D5FAFDF78A
S11348507DFB48B1202323702F4B636040F2BC637F
S1134860A3602E4BE360FEE74FB90A2323702A4B63
S1134870636040F2BF63A360284BE360FEE74EB978
S11348800A232370244B636040F2C163A360234B6B
S1134890E360FEE7FDF751FB0DB9214B1D68D5F828
S11348A00080B8F1000F10D1FDF74DFB0823C7F8C5
S11348B00080C6F800802370174B636040F2CC631D
S11348C0A360164BE360BDE8F081B5F8408018F0B2
S11348D001080CD1FDF737FB0723C7F80080C6F8A1
S11348E0008023700C4B636040F2D463E8E7FDF76B
S11348F02AFBAA6900231C3252F8041F51B13B6001
S1134900EA6BD31A336000232370034B636040F2D5
S1134910EF63D5E70133EFE7B57A0000517B000080
S113492070560020064A0023C0F8E8301368C0F827
S1134930EC300BB910607047C3F8E800FAE700BF29
S11349407C560020D0E93A2342B90A490B600BB1E6
S1134950C3F8E8200023C0F8EC307047C2F8EC300C
S113496013B9C0F8E8307047C3F8E8200023C0F852
S1134970EC30F6E77C560020074A00231360074A10
S11349801380074A13600370064B436040F621030B
S11349908360054BC36070477C560020805600201E
S11349A078560020B57A00002E7B000038B5F82236
S11349B00446002102F0C0FB1D4BE36000250021EA
S11349C004F18400FFF74EFAC4E92555C4E92D55D6
S11349D0C4E92755C4E93655C4E93855C4E91D5519
S11349E0C4E93155C4F8A850A4F8B050C4F8AC5088
S11349F0C4F8A450E564E56384F8BC50A4F84050BE
S1134A00656584F85050A4F8BE50A4F8C05000F076
S1134A10D5FC4FF080432363402384F83430054BA6
S1134A20A563C4E93305C4E93A55C4F8F03038BD88
S1134A30287B000087770000064A031F1C3053F8C8
S1134A40041F914203D18342F9D101207047002011
S1134A50704700BF4523CDAB08B9084B18680268FE
S1134A6083699A4207D3C16B03EB8100824202D26D
S1134A701846FFF7E1BF0020704700BF70560020C2
S1134A80034A031F1C3043F8042F8342FBD17047B1
S1134A904523CDAB2DE9F04F89B0DDE9136A0593C9
S1134AA09DF848300493BDF858300693DDE9179318
S1134AB01A9C0793BDF86430159F039205468846F7
S1134AC002930CB9FEF798F9FDF740FA834A844B38
S1134AD0834630B16260F022C4E9022320212170B0
S1134AE0FEE735B96260F322C4E902230A2121708A
S1134AF0FEE7039931B96260F622C4E902230A2170
S1134B002170FEE736B96260F922C4E902230A2162
S1134B102170FEE773490968B94206D96260FC2234
S1134B20C4E9022308212170FEE7574506D86260D4
S1134B30FF22C4E9022308212170FEE704993F29DA
S1134B4007D962604FF48172C4E9022308212170FD
S1134B50FEE7654906980988814207D262604FF4EE
S1134B608372C4E9022308212170FEE72846FFF777
S1134B701DFF5B4B594AE360029B626040F20B12DB
S1134B80A2609A0784F800B040F08A80029B0599DD
S1134B9003982AF0070A06EB8A0ACDE90073324625
S1134BA0534600F013FD864283460AD9322323700C
S1134BB04A4B63604FF49473A360494BE360FEF780
S1134BC01BF939463046FFF75BFF039BEB61059BFE
S1134BD02B62049B454CC5F80C8085F8333085F86E
S1134BE03430C5F800B0C5F808A0C5F87490B9F120
S1134BF0000F62D13E4BD3F800A001F0E1F9226826
S1134C00511E0C4649464B46EAFB0041204602F041
S1134C10CBF8079B6B60029BA5F8403005F1840438
S1134C200023C5E927330699C5F8A430A867AE6107
S1134C302046EF63FFF716F9284600F0C4FC284627
S1134C40FBF724FFEB6B95F83320E96800932846C3
S1134C50AB69FCF7A3F8424629462620FCF7EAF89C
S1134C60424621462320FCF7E5F8FDF766F90446A1
S1134C7095F83300FFF7BCFB2846FEF7D1FB284626
S1134C80FFF750FE1B4A1388013313801A4B1B781D
S1134C90012B20461BD009B0BDE8F04FFDF753B9F6
S1134CA0029B9B077FF572AF00231A4602E046F889
S1134CB023200133BB42FAD168E701F081F922686D
S1134CC00023511E0C461946E9FB00419EE7FDF7FF
S1134CD03AF909B0BDE8F04FFEF7B6BCB57A00006A
S1134CE0447B000000770000BC500020E05000200E
S1134CF05C550020805600205855002070B50446AD
S1134D000D4694F83230072B08D8013B062B0BD8FC
S1134D10DFE803F01F22221F1F222200FF2B1AD0DC
S1134D20BDE87040FEF768B82046FEF717FC284639
S1134D3084F83350FFF75CFB2D4B1B68A3422046DD
S1134D4003D1BDE87040FEF74FBBBDE87040FEF7ED
S1134D5067BB84F8335070BD94F8303094F83360F6
S1134D6084F83350013B072BDAD801A252F823F020
S1134D70914D0000574D0000214D00009B4D000057
S1134D80914D0000914D0000574D0000914D0000E1
S1134D902046BDE87040FEF75DB92046FEF75AF99B
S1134DA0E36A5C6AB54294F833300AD2AB42D2D992
S1134DB02046FBF785FB2A4601462D20FBF72EFDF6
S1134DC09FE7B3429DD12046FFF7EAF994F83420D7
S1134DD094F83330904228BF1046C5B2AB42BAD0E3
S1134DE02046FBF76DFB2A4601462E20E6E700BF6E
S1134DF0705600202DE9F04104460D4609B9FDF72F
S1134E00FBFFFDF7A3F848B120232B705B4B6B60CD
S1134E104FF4DB73AB605A4BEB60FEE7594B1B78E6
S1134E20012B0AD002232B70544B6B604FF4DD73BB
S1134E30AB60534BEB60BDE8F0812CB9FDF77DF816
S1134E40514B1C68FDF77FF8FDF777F894F8323082
S1134E50072B804608D8013B062B0DD8DFE803F06A
S1134E604935350F49353500FF2B7DD0FDF76BF8FB
S1134E70BDE8F041FDF7C0BF2046FEF76FFBA36B12
S1134E8013B12046FFF774FA04F18400FEF7D2FF51
S1134E90204600F099FB2046FFF754FD3B4A138857
S1134EA0013B1380FF2384F832304046FDF74BF872
S1134EB000232B70314B6B6040F23323AB60304BDB
S1134EC0EB60BDE8F041FEF7BFBB94F83030082B2F
S1134ED047D8DFE803F0080508461705050805006C
S1134EE02046FEF79CF894F8323003F0FB03032BC2
S1134EF0C5D104F1580000F09DFF0028BFD0FDF794
S1134F007BFFBCE7E36A5E6A204696F83370FEF7DF
S1134F1086F896F8333096F834209A420CD094F8F8
S1134F2033209A4208D13046FFF73AF996F8341004
S1134F30814228BF0146CFB2002384F8303096F86E
S1134F403330BB42CFD039463046FFF7D7FE304628
S1134F50FBF7B6FA96F8332001462E20FBF75EFCE9
S1134F60C1E7FDF749FFBEE7FCF7EDFF1F232B70F8
S1134F70024B6B6040F209235AE700BFB57A000088
S1134F803A7B0000585500207056002080560020BF
S1134F901FB5054B186800F018FB69460020FFF7A1
S1134FA029FF05B05DF804FB705600200023037050
S1134FB0044B436041238360034BC360034B186875
S1134FC0704700BF5E7B0000DB7B0000E0500020E8
S1134FD02DE9F04F054685B0884614460AB9FDF719
S1134FE00BFFFCF7B3FF6C4F6C4E30B120232370E2
S1134FF07023C4E902366760FEE7FCF7B1FF30B105
S11350001F2323707323C4E902366760FEE7644BF1
S113501093F80090B9F1010F08D002232370676060
S11350207723C4E9023605B0BDE8F08F5D4B93F8F1
S113503000A0BAF1000F04D02D23237067607C23F5
S1135040EFE7B8F1000F2FD0B8F1020F2CD0B8F170
S1135050080F00F09680082323708123C4E90236E8
S11350606760FEE700F0A0FF4F4B1968A0FB0181C9
S1135070029100F0A5FF534602460299404601F012
S113508093FE4A4B1B6893F85020CAB15A6D1544DD
S11350905D652D1A25EAE575454A116821B15A6DF9
S11350A091429CBF521A5A65002D49D0404B1B684F
S11350B05BB1AB4209D81E2323706760A923B0E714
S11350C02844586583F85090E6E700F079FF364BA2
S11350D002901A680392FCF730FF039A0299DFF8F2
S11350E0CCA04FF000098046CC46501EE5FB010CD5
S11350F04B46614601F058FEDAF800B02D4A0146ED
S1135100CDE900995B460BF1580000F0F1FE012552
S113511030B14046FCF717FF25706760B92380E77C
S1135120DAF8000080F83250FEF718FA4046FCF72F
S11351300AFFFEF789FA002323706760D22370E721
S1135140FCF7FBFE1C4B1D491A784FF00C0C02EBCC
S113515042030CFB02F201EB020C01EB83038958BE
S1135160DCF804209142054606D1FCF7ECFE00234E
S113517023706760C82354E71846FEF7D8F9284619
S1135180D5E7002D7FF46EAF8623C4E9023684F898
S113519000806760FEE700BF5E7B0000D17B0000FB
S11351A05855002059550020E0500020705600202A
S11351B004510020D53800004E52002058520020DF
S11351C000B589B004AB00220093044803AB114638
S11351D0FEF752FE09B05DF804FB00BF90560020B4
S11351E01FB504486A460021FEF7E8FF05B05DF8E4
S11351F004FB00BF9056002010B51F4A0023136023
S11352001E4A044613601E4A8AB01380FFF7CEFE7E
S11352102378002B2CD11B4B1B68002B2AD0B0FB0E
S1135220F3F3194A19491360194A1A4813601A4AC0
S113523000231360194A13602246FEF755FF2378B2
S1135240B3B90B22CDE90632CDE90433144A0894EC
S113525012680392134A144912680292134A1448BA
S113526012680192134A12780092134AFFF712FC53
S11352700AB010BD0A23D2E7845600208C560020C1
S113528088560020E8500020C4570020EF7B00001F
S1135290C857002090560020C0570020BC5700205B
S11352A0F8500020F4500020FC7B0000F050002057
S11352B0C4560020E4500020F95200000C4A03694F
S11352C01168814204D1136033B100225A6103E0B2
S11352D042691361002BF9D1064A012380F8263074
S11352E00023C0E904331388013B1380704700BFD7
S11352F08C560020885600202DE9FF471F4F204E72
S1135300DFF8848038686A460021FFF761FEFFF702
S113531057FF00F053F83368D8F8004001330546CE
S113532033604FF0030954B900F048F8154B1A687C
S1135330401B824238BF1860FFF752FFE2E768461D
S1135340FDF766FDA369D4F810A0013BA3614BB936
S1135350A38C022B0BD1236AA361A36813B1E16868
S1135360204698476846FEF743FA5446DBE7204652
S1135370FFF7A4FF84F82690EFE700BFC45700208E
S1135380C0570020BC5700208C56002008B5FBF7FE
S11353901BFF4FF0E022D2F8FC3D43F08073C2F8CB
S11353A0FC3D054B00225A601A6842F001021A6063
S11353B0BDE80840FDF724BD001000E0014B58682B
S11353C0704700BF001000E038B500250446FBF725
S11353D0FBFE064A0023294601F0E6FC02460B4682
S11353E02046294601F0E0FC38BD00BF40420F00D2
S11353F0B0FA80F0704790FAA0F0B0FA80F07047ED
S113540090FAA0F0704700BF72B64EF62250CEF26A
S1135410000040F2FF01C0F200010170002080F39F
S1135420098845F2CC70C2F20000016881F3088853
S113543000F006F945F24E20C2F2000045F24F2179
S1135440C2F200010A78027045F27060C2F20000F4
S113545045F27461C2F200010A680260106880F3C8
S11354600988EFF3148040F0020020F0040080F378
S11354701488BFF36F8FBDE8F04F0FBCBDE8005038
S113548006BC62B6084737484FF080510160704748
S113549034484FF0805101607047602080F31188D8
S11354A045F27062C2F200021168002901BF2E4A5F
S11354B0136823F0010313600ED0EFF309801EF08C
S11354C0100F08BF20ED108A20E9F04F45F27065F7
S11354D0C2F2000529680860744600F0B1F845F28C
S11354E07061C2F2000145F27460C2F20000036808
S11354F00B6045F24E22C2F2000245F24F21C2F285
S113550000010878107044F0040E002B0AD01868CB
S1135510B0E8F04F1EF0100F08BFB0EC108A80F313
S113552009881BE045F2CC71C2F200010868A0F1C1
S11355301C0080F3088840F20001C0F20011C16130
S113554045F26D51C0F20001816144F69171C0F2DF
S1135550000141614FF6F97ECFF6FF7E002080F313
S11355601188704704ED00E034EF00E000BFFDE770
S11355700B4B1A680B4B02F180421B68013A03EB98
S11355808203094A23F0070313604FF0E023D3F8A2
S1135590343F03F04043B3F1404F00D0FEE770477F
S11355A0AC500020A8500020CC57002007B5FCF7D1
S11355B0C4FC0190FDF720FC019803B05DF804EBF6
S11355C0FCF7C1BC704770477047704710B5029C28
S11355D002EB840222F007024FF0807442E90204D5
S11355E0164842F80C0C4FF012344FF0033042E9E5
S11355F005044FF0023042E907306FF0020C4FF01F
S1135600113342E90A3C42F8201C4FF009334FF0B1
S1135610103142E90C314FF008304FF0073342E9C2
S11356200E304FF006344FF00533104642E9103483
S11356304FF0043340F8443D10BD00BF914F0000CB
S113564010B50F4C206848B10E4B1B7833B1836FF3
S11356500BB9FDF7CDFF2068FDF7AEFF20680A4CBB
S1135660FBF76EFB23684BB10020FFF7F5F9012827
S113567004D02068BDE81040FFF798BF10BD00BFFC
S11356807456002060550020705600204111064ACF
S1135690012300F01F0003FA00F052F821301843F0
S11356A042F82100704700BFDC570020044B1B6800
S11356B01BB1044B0360002070470120704700BFFA
S11356C0EC5F0020D057002070B50D4C246884B1E5
S11356D00C4C26888518B5420DDC6688CD18B54279
S11356E009DC52B14BB1A080E180228163810020AA
S11356F070BD0120FCE70420FAE70520F8E700BFAD
S1135700EC5F0020D05700202DE9F74F0093444B65
S11357101B68002B7FD0DFF810910D9FB9F806307D
S1135720B9F80A205D181A441FFA82FAADB24FF094
S1135730010B1FB9384603B0BDE8F08FABB29A45F0
S11357406BD9384AB9F80840B9F80430241A02EB86
S11357500511009ABC4228BF3C46161E18BF0126FC
S113576003447642072CA7EB04079BB2F6B221D878
S11357701C44BEB9A34217D2DE0803F007020BFA99
S113578002F08A5D013322EA00028A559BB2F1E7F6
S1135790D80803F007020E5C0BFA02F2324301331D
S11357A00A549BB2A342F3D32846FFF76FFF013597
S11357B00020BEE74FEAD30C01EBD30813F0070334
S11357C010D00BFA03F211F80CE0D2B2501E524280
S11357D00EEA000032401043083B01F80C0008F1C7
S11357E001081C44E20809D031464046019201F008
S11357F0A3FC14F00704019AD6D090440BFA04F4E5
S113580098F80030E4B26242013C134034401C4337
S113581088F80040C8E701278CE704278AE700BF1F
S1135820EC5F0020EC570020D057002037B5124D14
S11358302B68FBB9FBF774FC044618B1012420461D
S113584003B030BDFBF760FC28600028F6D0028866
S113585041880A4B1A801A814A4359809C80DC8013
S113586059812046CDE90042234622462146FFF7CE
S11358704BFFE4E70024E2E7EC5F0020D057002070
S11358802DE9F8431B4FDFF874803C68DFF868901B
S1135890002301251A46D8F800004188D6188E4204
S11358A007D3FBB913481022002101F045FC002066
S11358B012E0E10708D50133D118C9060ABF57F829
S11358C0254064080135E6E753B109EB0211FBF703
S11358D0C1FB034610B10720BDE8F883721CEBE757
S11358E00132E9E7044901EB0211FBF7B3FB00289D
S11358F0D8D0F0E7DC570020EC570020EC5F002004
S113590030B102680021538812880846FFF7DCBED4
S11359100520704737B50446A8B14568FFF7F0FF86
S1135920014668B922681389528953430193EBB243
S11359300093C5F30742C5F30723FFF7E5FE0146CD
S1135940084603B030BD0521FAE710B470B183698D
S113595042698489018A01330132121B5B1A204691
S11359609BB25DF8044B92B2FFF7AEBE05205DF822
S1135970044B7047F0B4D0B1C9B10E688C68A6422C
S113598018DA4D68CA68954214DA002E14DB002D2B
S113599012DB01680F88BC420EDA49888A420BDAAE
S11359A0C0E90365C0E90542F0BCFFF7CEBF05209E
S11359B0F0BC70470420FBE70320F9E730B5054647
S11359C087B000B300226FF07F43C0E9012301A830
S11359D0FFF76CFE044698B9019B2B601A885B881C
S11359E0CDE90200013A013B02A92846049205933D
S11359F0FFF7C0FF044618B90449284600F01EF911
S1135A00204607B030BD0524FAE700BF407F000000
S1135A1010B5040C0C70010A1170187010BD2DE93A
S1135A20F84F89462DED048B92461C460746002804
S1135A305FD00B44091B00F05EF8012809D8C4F1BB
S1135A40010880F001050026A64206DBB5FA85F0C0
S1135A504009BDEC048BBDE8F88FB8F1000FA5BF79
S1135A6004F1FF34331B08EB460308EB430303F153
S1135A700108A9EB060309EE103A06EB090B19EE2F
S1135A80101A5B4604EB0A02384600F034F8012889
S1135A90DFD800B90135A9EB040308EE103A0AEB8C
S1135AA0060204EB090318EE101A384608EE903A81
S1135AB000F021F80128CCD800B9013519EE101AEC
S1135AC05B46AAEB0402384600F015F80128C0D85A
S1135AD000B9013518EE903A18EE101AAAEB060236
S1135AE0384600F008F80128B3D800B9013501366A
S1135AF0AAE70520ADE7F0B5164685B005460028AF
S1135B0040D00269B2423FDC8269B2423CDB994236
S1135B10C2BF0A461946134642698A4234DBC46846
S1135B209C4231DC8C42B8BF0C469A42D4BFC4EBD1
S1135B300207C4EB03070137A0B20123BAB2B1B222
S1135B40FFF7C2FD0446D0B9A8680DF10F030DF1AB
S1135B500E020DF10D01FFF75BFF9DF80F3000936E
S1135B60214620469DF80E309DF80D200197FFF741
S1135B70CBFD044618B92846FFF7E7FE0446204645
S1135B8005B0F0BD0524FAE70124F8E7036882684C
S1135B909342C4BF02608360C26843689342C4BF37
S1135BA04260C360704770B504460FC988B004AD45
S1135BB085E80F002846FFF7E9FFE368049AA06828
S1135BC09A42B8BF0493069A63699A42C8BF06937F
S1135BD0059A23699A42B8BF0593079AA3699A4222
S1135BE0C8BF07930DF10E020DF10F030DF10D0166
S1135BF0FFF70EFF04980599069D079E2D1A761A45
S1135C000135013689B2B3B2AAB280B2FFF75CFDA6
S1135C10014680B99DF80F30009375439DF80E300E
S1135C209DF80D200195FFF76FFD014618B9204638
S1135C30FFF78BFE0146084608B070BD08B520B1D9
S1135C401C30102219B901F077FA052002E001F0A6
S1135C5065FA002008BD000030B50F4C416123688F
S1135C60ABB92060836011E0891A9A6841611D46CE
S1135C702AB113465A698A42F6D955B11A46A86020
S1135C801346836013B15A69511A596130BD002516
S1135C90F0E72060F5E700BF0860002010B500F0D1
S1135CA077FA0A4C0A4B19682368C31A01B10BB975
S1135CB0206010BD4A699A422EBFD21A9B1A002254
S1135CC04A6128BF00238968F0E700BFF45F002021
S1135CD00860002038B50F4B0F4D1C682B685B69BA
S1135CE002201C4400F082FA204600F057FA0B49C7
