:1000000000100020411100003D1100003D110000D2
:100010003D1100003D1100003D1100003D110000A8
:100020003D1100003D1100003D1100003D11000098
:100030003D1100003D110000935C000009740000B8
:100040003D1100003D1100003D1100003D11000078
:100050003D1100003D1100003D1100003D11000068
:100060003D1100003D110000717300003D110000C2
:100070003D1100003D1100003D1100003D11000048
:100080003D1100003D110000BD7300003D11000056
:100090003D1100003D1100003D1100003D11000028
:1000A0003D1100003D1100003D1100003D11000018
:1000B0003D1100003D110000716E00003D11000077
:1000C0003D1100003D1100003D1100003D110000F8
:1000D0003D1100003D1100003D1100003D110000E8
:1000E0003D1100003D1100003D1100003D110000D8
:1000F0003D1100003D1100003D1100003D110000C8
:100100003D1100003D1100003D11000010B5054CEF
:10011000237833B9044B13B10448AFF300800123B3
:10012000237010BD4011002000000000A89D0000B9
:1001300008B5034B1BB103490348AFF3008008BD6A
:100140000000000044110020A89D0000A3F5803AA3
:10015000704700BF174B002B08BF134B9D46FFF79E
:10016000F5FF00218B460F461348144A121A07F078
:10017000D3FF0E4B002B00D098470D4B002B00D027
:1001800098470020002104000D000D48002802D0EF
:100190000C48AFF3008007F07DFF2000290007F036
:1001A0002FFD07F063FF00BF000008000000000003
:1001B000000000000010002040110020307F0020CF
:1001C000000000000000000010B5114C114AA261AF
:1001D0000323C4E90433104BE36122664FF48063C8
:1001E0000E4A0F492362626600231022E01DA362BB
:1001F0006362E3622367E3666367A26608F06AF8F6
:100200000849204608F066F82023A37110BD00BFFE
:100210005C1100203C8A000014120020041200200F
:10022000458A0000498A00002DE9F84FDFF87C80FC
:1002300098F800308246894616460BB9FFF7C4FF8E
:10024000182707FB0A873D6FD7F86CB05D452BD99F
:10025000BC6E796E641BB44228BF344629444846BC
:10026000224607F04BFFBB6E2544A144361BAB4230
:1002700008BF0025ABEB0502964228BF164656B1D3
:10028000182303FB0A833246596E4846294407F077
:1002900035FF3444354424B1182000FB0A88C8F8DF
:1002A00070502046BDE8F88F0024E3E75C11002081
:1002B0002DE9F041164C1E46237805468846174620
:1002C0000BB9FFF781FF2369AB421DD9EFF3118C06
:1002D0004FF0200181F3118865B1182005FB000360
:1002E000E21844F80380576000FB054200231662C1
:1002F00093625362182000FB0544069BE3628CF373
:1003000011880020BDE8F0814FF0FF30FAE700BF10
:100310005C1100202DE9F843144D1F462B7806464A
:10032000894690460BB9FFF74FFF6B69B34219D965
:10033000EFF311824FF0200181F3118846B11824A8
:1003400004FB0654C4E918980023A7662367E366F4
:10035000182000FB0655089B6B6782F3118800206C
:10036000BDE8F8834FF0FF30FAE700BF5C110020D2
:10037000F0B400EB4003DFF8800000EBC30000F1B5
:1003800018063069F768756887422ED3B368DC1B9E
:10039000631E934212D37D19D01900BF11F8013B9F
:1003A00005F8013B013A05D011F8013B05F8013B86
:1003B000013AF3D1F0600120F0BC7047C0189042C0
:1003C00017D37819121B11F8013B00F8013B013CCF
:1003D000F9D1141C05D011F8013B05F8013B013A95
:1003E000F9D1F4600120F0BC7047C01B0138904285
:1003F000D1D20020F0BC70475C11002030B5002342
:10040000CC5C74B99A4228BF1A46FE2AD4B20AD8E4
:10041000034603F8014B581E8C18A1420AD19818C4
:1004200030BD0133ECE7FF234470140A037084707D
:10043000C31CF0E711F8015B00F8015FEDE7000075
:100440002DE9F743002580460F4691461E460F4989
:100450000F4A00954FF480630120FFF729FF0D4CF0
:100460000D4A0A49009508230120FFF753FF4FF07A
:1004700080532361094B5B68E360C4E90187C4F8DA
:1004800020906662257003B0BDE8F083508A0000BA
:10049000481600202016002014160020001000E04E
:1004A000014B1861704700BF20160020034B1B6AE8
:1004B00013B15B6803B11847704700BF20160020D6
:1004C000024B1B69C01A8008704700BF201600202D
:1004D000044B10B51C6824B1E36803B19847246944
:1004E000F9E710BD2C1B002010B5EFF311844FF07D
:1004F000200181F31188094B09481B787F2B89BFA4
:10050000084907490B71053188BF012301F8013BF8
:100510001B2200F0ABF884F3118810BD1C160020DC
:100520004C1A0020481A002038B52A4C01202070AF
:10053000EFF311854FF0200181F3118826490A223B
:10054000FFF716FF85F311880A2000F035F9EFF365
:1005500011854FF0200181F31188204861687F29BF
:10056000CAB200F1010320D80270A0687F28C2B28D
:1005700003F1010120D81A7022697F2AD3B222D850
:100580000B7002234B7015481822194400F06EF8C6
:1005900085F31188636A03B1984700F06BF9FFF7A0
:1005A00085FFBDE83840FFF79FBF62F07F0203F888
:1005B000012CC9091846D2E762F07F0201F8012C2C
:1005C000C0090B46D2E763F07F0301F8013BD20973
:1005D000D3E700BF20160020588A00004C1A0020E4
:1005E00007B501220DF107011046FFF71DFE002897
:1005F00019DD9DF80730072B08D84BB1023B052BBE
:100600000FD8DFE803F01316191C1F22802B1FD010
:100610001B0608D501220DF107011046FFF704FE65
:1006200001E0FFF781FF03B05DF804FB00F03CF947
:10063000F9E700F01FF9F6E7FFF738FFF3E700F0FE
:100640004BF9F0E7FFF750FFEDE7FFF741FFEAE76F
:1006500001220DF107011046FFF7E6FD0028E2DD5B
:100660009DF8070000F0DAFADDE700002DE9FF4110
:100670004E4C2378012B06460F46154623D11F2DDD
:100680006DD9BB1B7F2BDAB281BF62F07F02DB0921
:1006900006F8013C06F8022C8EBFB31E06F1FF33AC
:1006A00006F8012C7F2DEAB281BF62F07F02ED09CE
:1006B00003F8015C991E8EBF03F8022C03F1FF3191
:1006C00003F8012C55E03BB3022BD8D1012362691A
:1006D0008DF804300DF105007F2AD3B200F101013D
:1006E0002BD80370324BD3F80480E368A8EB0303E4
:1006F0007F2BD8B201F1010226D8087001A9521A45
:100700000120FFF735FE30B32378C4F80C80013B9D
:1007100023702378012BB2D0264BD3F88420D3F852
:1007200088309A4206D0A57825B90123A370FFF737
:1007300057FFA57004B0BDE8F08163F07F0301F8B6
:10074000013CD2090846C7E760F07F0002F8010CBF
:10075000DB091146CCE7636901336361D9E7E369DB
:10076000EB40DB07D8D4172DEBB28AD8711E06F800
:10077000013C0F4B5D68E368EB1A7F2BD8B207F1A1
:10078000010207D83870521A0120FFF7F1FD40B17D
:10079000E560C1E760F07F0002F8010CDB09174655
:1007A000EBE7237801332370B6E700BF2016002063
:1007B000001000E05C11002010B50246EFF3118438
:1007C0004FF0200181F3118803490846FFF74EFFDF
:1007D00084F3118810BD00BF4C1A002038B50246C2
:1007E0000B46EFF311854FF0200181F311880A4881
:1007F0007F2BDCB200F1010106D804700648FFF738
:1008000035FF85F3118838BD64F07F0401F8014C91
:10081000DB090846ECE700BF4C1A002070B50B4618
:10082000EFF311854FF0200181F31188104E7F2BDB
:10083000D9B206F101040DD831707F2AD3B204F188
:1008400001010ED8024623700948FFF70FFF85F318
:10085000118870BD61F07F0104F8011CDB09264698
:10086000E5E763F07F0301F8013CD2090C46E4E7B9
:100870004C1A002008B50A4B1B6A4BB11B683BB1F0
:100880009847BDE808400A4601460D20FFF7C6BF5D
:10089000044B0C205968BDE80840FFF79FBF00BF1C
:1008A00020160020001000E038B5EFF311854FF05E
:1008B000200181F31188064C237833B105490B22BE
:1008C0000846FFF7D3FE0023237085F3118838BD57
:1008D000201600204C1A002070B5EFF311854FF060
:1008E000200181F311881C4C1C4861687F29CAB221
:1008F00000F101031AD80270A0687F28C2B203F188
:1009000001011AD81A7022697F2AD3B21CD80B7041
:1009100002234B70114818221944FFF7A7FE85F3F4
:100920001188636AB3B1BDE87040184762F07F0276
:1009300003F8012CC9091846D8E762F07F0201F8D4
:10094000012CC0090B46D8E763F07F0301F8013B97
:10095000D209D9E770BD00BF201600204C1A002034
:1009600070B50446EFF311854FF0200181F3118833
:100970002F4E036832692F489B1A9B087F2BD9B2F0
:1009800000F1010231D80170A1687F29CBB202F1D8
:10099000010031D8137061682022FFF72FFD092272
:1009A00001462448FFF762FE2368326921489B1AFA
:1009B0009B087F2BD9B200F1010224D80170E068B6
:1009C0007F28C3B202F1010124D8137022697F2A63
:1009D000D3B226D80B7000234B7016481522023173
:1009E000FFF744FE85F3118870BD61F07F0102F8C6
:1009F000011CDB091046C1E763F07F0300F8013CEE
:100A0000C9090246C1E761F07F0102F8011CDB0958
:100A10001046CEE763F07F0301F8013CC0090A46A7
:100A2000CEE763F07F0301F8013BD209CFE700BFB7
:100A3000201600204C1A002038B5EFF311854FF036
:100A4000200181F31188074C014680222046FFF7E0
:100A5000D5FC0E2201462046FFF708FE85F31188DB
:100A600038BD00BF4C1A002010B5EFF311844FF0D1
:100A7000200181F31188044911220846FFF7F6FD91
:100A800084F3118810BD00BF4C1A002010B5EFF39D
:100A900011844FF0200181F311880C4B0C4A1B6923
:100AA000C01A80087F28C3B202F1010107D8137071
:100AB00007480822FFF7DAFD84F3118810BD63F0C0
:100AC0007F0301F8013CC0090A46EBE7201600202D
:100AD0004C1A002010B5EFF311844FF0200181F380
:100AE00011880C4B0C4A1B69C01A80087F28C3B2BE
:100AF00002F1010107D8137007480422FFF7B6FD81
:100B000084F3118810BD63F07F0301F8013CC00934
:100B10000A46EBE7201600204C1A002010B5EFF330
:100B200011844FF0200181F311880C4B0C4A1B6992
:100B3000C01A80087F28C3B202F1010107D81370E0
:100B400007480622FFF792FD84F3118810BD63F079
:100B50007F0301F8013CC0090A46EBE7201600209C
:100B60004C1A002038B50B46EFF311844FF02001EA
:100B700081F31188124A134D1269801A80087F2868
:100B8000C1B205F101020DD829707F2BD8B202F154
:100B900001010ED810700B480722FFF767FD84F3A0
:100BA000118838BD61F07F0102F8011CC0091546AB
:100BB000E5E760F07F0001F8010CDB090A46E4E795
:100BC000201600204C1A002038B50C46EFF3118592
:100BD0004FF0200181F311880E4B0F491B69C01A99
:100BE00083087F2BDAB201F101000CD80A7021468C
:100BF0008022FFF703FC192201460748FFF736FD64
:100C000085F3118838BD62F07F0200F8012CDB0902
:100C10000146E6E7201600204C1A002038B51B4B91
:100C20001C6884B938BD2469002CFBD0013398427C
:100C3000F9D8EFF311854FF0200181F311887F2857
:100C400004D8134B06E000230246F0E7114B0122C3
:100C50001871053303F8012BA1687F29CAB203F18B
:100C600001000CD81A7021688022FFF7C7FB1622FA
:100C700001460748FFF7FAFC85F31188D2E762F0D6
:100C80007F0200F8012CC9090346E6E72C1B00206F
:100C90004C1A0020481A002038B5EFF311854FF0A8
:100CA000200181F31188094C014680222046FFF77C
:100CB000A5FB0123037000234370811C1A222046E8
:100CC000FFF7D4FC85F3118838BD00BF4C1A002013
:100CD00008B50548FFF7B0FE0448FFF7ADFEBDE8D4
:100CE000084000F0D1B800BF628A0000968A000078
:100CF00010B500F069FA044600F066FA054B064AA2
:100D000001462046FFF79CFBBDE810404FF0005025
:100D1000FFF7C6BBD10C00004C8B000008B502F0F9
:100D20007CF8BDE8084004F04BBF10B5044602F063
:100D300029F920B92046BDE81040FFF7EFBE10BDED
:100D400010B5044602F01EF920B92046BDE8104057
:100D5000FFF7C0BE10BD10B5044602F013F928B964
:100D600020460421BDE81040FFF7FCBE10BDF0B5E1
:100D700087B007460E4615460021142201A81C46DE
:100D800007F0CAF90C9B059301A8CDE90176CDE9DE
:100D90000354FFF7E5FD07B0F0BD00002DE9F04773
:100DA000DDF8209005460E461746984602F0EAF810
:100DB000E8B910490C683F2C04D9BDE8F0470E484B
:100DC000FFF76ABF0D48142262438318013485502F
:100DD000C3E90167C3E903890C604346CDF820905D
:100DE0003A4631462846BDE8F047FFF7C0BFBDE8A8
:100DF000F08700BF341B0020A78A0000382700209E
:100E000073B50A4C0A4E00253368AB4204F1140452
:100E100001D802B070BD54F8043C009354E90501B8
:100E200054E90323FFF7A3FF0135EDE7382700203E
:100E3000341B002070B50C46064611462046154668
:100E4000FFF7C2FE2046FFF73BFB01463046FFF7A7
:100E5000C5FC0A490B68FF2B04D9BDE8704008485F
:100E6000FFF71ABF074E0C225A43B018B450013393
:100E70000022456082600B6070BD00BF301B002007
:100E8000F78A0000381B0020F8B5094C094E0025F0
:100E900001273368AB4200D8F8BDA36823B9D4E971
:100EA0000001FFF791FEA76001350C34F1E700BFA8
:100EB000381B0020301B002008B5042201230F211D
:100EC000032001F06DFD002008BD00002DE9F04178
:100ED0001A4E0446884617460FCE86B06D460FC59B
:100EE00096E8030085E8030015482568012100F015
:100EF000EDFA6068012100F0E9FA617B207B0023B4
:100F0000042201F04DFD617A207A0023042201F0D1
:100F100047FD28466946CDF80880ADF8107001F00D
:100F200081FE237CA27B1B0643EA0223AB670020E1
:100F30000A236B6706B0BDE8F08100BF548B000048
:100F400000350A0070B506680C468D18AC4201D118
:100F5000002070BD14F8011B304601F0BDFEF5E71E
:100F6000026813699B06FCD57047000013B5044660
:100F700005F042FE247B00230122CDE9003264000B
:100F8000034AB0FBF4F1034805F098FD02B010BD30
:100F9000990F0000382C0020024B4FF40052C3F888
:100FA000A820704700A0004073B50F4B0F4E4FF4C0
:100FB0008045C3F89C500446407B05F07DFF042328
:100FC00002220DF106013046ADF80630FFF7BAFFF8
:100FD0003046FFF7C5FFA07B05F06EFF044B0020F5
:100FE000C3F89C5002B070BD00A000460010002065
:100FF00000A0004438B5044601211248124D00F00B
:1010000065FAA16811480022FFF760FF002304225F
:101010000E21032001F0C4FC002304220D21032033
:1010200001F0BEFC94E80F0085E80F00084B012298
:1010300020461A70FFF79AFF2046FFF7B5FF002001
:1010400038BD00BF00350A00582C002000100020D9
:10105000542C00202DE9F74F0688DFF8A4B09846FD
:1010600003795E43254B14464FF48042C3F89C201D
:101070000134A4B20546407B0F4605F01DFF230254
:1010800043F001031E48ADF8063002220DF10601BF
:101090000134FFF757FF2402F610A4B24FF0000905
:1010A00008F1FF3AC1450ED11548FFF759FFA87B5B
:1010B00005F002FF134B4FF480420020C3F89C2040
:1010C00003B0BDE8F08F394632465846FFF73AFF85
:1010D000CA4514BF44F0FF034FF6FF7302220DF11F
:1010E0000601584604F58074ADF806303744FFF722
:1010F00029FF09F10109A4B2D4E700BF00A000460E
:101100000010002000A00044034B04481B78002B73
:1011100008BF0020704700BF542C0020582C00202E
:101120001FB5054B0FCB6C4684E80F002046FFF738
:1011300061FF04B010BD00BF6C8B0000FEE7000033
:1011400008B500F059F8064B0649074A8B4201D30F
:10115000FFF700F852F8040B43F8040BF6E700BF62
:101160000010002040110020B09D00000048704792
:10117000005A6202104AD2F8943003F00703023B8F
:10118000032B13D8DFE803F00C14020E0B4B1B6883
:10119000D2F80001C0F304200130B3FBF0F0704737
:1011A000074BF4E7074B1B685B08F1E7054BEEE7DD
:1011B0004FF40043ECE700BF00400E402010002039
:1011C000181000201C10002008B5FFF7D3FF054BB6
:1011D000D3F80831C3F308230133B0FBF3F0024B1B
:1011E000186008BD00400E4014100020014B186824
:1011F000704700BF18100020044B054A9A60D3F8CE
:10120000882042F47002C3F88820704700ED00E0A7
:10121000000000004FF4004070474FF47A707047B0
:10122000014B1868704700BF2010002005490A686C
:101230001318054883428CBF4FF0FF320B601046F5
:10124000704700BF241000200000042070B5054640
:101250000E46144600F07AFE296881EA040202EA8A
:1012600006044C402C60BDE8704000F073BE0000E6
:10127000B0F1804F38B504460D4606D01D4B98425C
:1012800003D01D48A22100F081F82B693F2B03D920
:101290001948B62100F07AF8EB683F2B03D91648BD
:1012A000B72100F073F86B683F2B03D91248B821BF
:1012B00000F06CF86B682A781B0643EAC27343F4AB
:1012C00000432360EA682B7A43EA0243A3622A6957
:1012D0006B7A43EA0243E362AA7A084B43EA027359
:1012E000636004F1424404F5801464012B7D2360A3
:1012F00038BD00BF000400407C8B000000FD0004EE
:10130000B0F1804F13B50A46044608D0074B984207
:1013100005D001910648F52100F038F8019AFF2127
:10132000201D02B0BDE81040FFF790BF0004004050
:101330007C8B0000B0F1804F10B5044607D0064BFF
:10134000984204D0054840F21B1100F01FF82368B2
:1013500023F00103236010BD000400407C8B0000DB
:10136000B0F1804F10B5044607D0064B984204D028
:1013700005484FF49C7100F009F8236843F001031D
:10138000236010BD000400407C8B0000FEE70000DD
:101390000C4B984210D90C4B984210D902220123D1
:1013A0000A490B640A49D1F8003123F0807343EAFB
:1013B0000263C1F80031704700221346F0E70122B2
:1013C000FBE700BF0048E8010090D0030000C843DD
:1013D00000400E4038B5114B5B68114B00221C4693
:1013E000C9B21D798D4202D11D68854212D20132E7
:1013F000052A03F10803F4D10A4841F23A41FFF704
:10140000C5FF032205494B6823F0407343EA02639A
:101410004B6038BD04EBC2025279F3E700000E4086
:10142000A48C0000AC8B00001F2810B5044604D922
:10143000034840F22F11FFF7A9FF0120A04010BD83
:101440000F8C000038B5074C41F67133256C2364CE
:10145000FFF78CFE0021FFF7BDFF0DB100232364D1
:1014600038BD00BF00000E40044BDB6B5B0604D4AC
:10147000034AD2F8C830002BFBD1704700300E4031
:101480000000C64308B5FFF7EFFF024B5868C0F3F2
:10149000014008BD00300E40044BD3F84421D20770
:1014A00003D4D3F840211042FBD1704700400E40D6
:1014B00038B5054C41F67133256C2364FFF78AFF7C
:1014C0000DB10023236438BD00000E4038B5C0F3D1
:1014D0000323013B092B24D8DFE803F02A2D232323
:1014E000051619231C20154C0023C0F3043513B135
:1014F0001846FFF7D1FF04F1424404F5801405EBD0
:10150000C404A400216038BD0D4C0123EDE70D4C4F
:101510001023EAE70C4C4FF48033E6E70B4C002332
:10152000E3E7BDE838400A4841F6D711FFF72EBF80
:10153000084C0023D9E7084C0023D6E7B0400E4002
:10154000E0400E40E8400E40F0400E4050410E405A
:10155000AC8B000000400E40C0400E4008B5C0F308
:101560000313013B092B60D8DFE803F0050B0F19CB
:101570005F5F1F233C532E4BD3F80001C0F30420C0
:1015800008BD2B4BD3F81401F8E7294BD3F8000121
:10159000C0F300600130FFF747FF0138F0E7244B4C
:1015A000D3F80C01C0F30820EAE7214BD3F8080177
:1015B000F8E7204B984209D01F4B98420CD041F6D7
:1015C0007B311E48FFF7E2FE0020D9E7184BD3F825
:1015D000200100F00F00DEE7154BD3F82001C0F327
:1015E0000110D8E7164B984208D003F5B01303F565
:1015F0008053984206D041F69F31E2E70C4BD3F876
:101600002801ECE70A4BD3F82801C0F3012004308D
:10161000C1E70C4B984205D1054BD3F8300100F0DF
:101620000300ADE741F6AE31CBE741F6D331C8E771
:1016300000400E408006160080162E00AC8B000085
:1016400090171A00A009140008B5FFF787FF0130B2
:1016500008BD000000F00F00013808B5072844D885
:10166000DFE800F0040F1943232D4335264BD3F850
:10167000943003F00703023B052B3DD8234AD05C8E
:1016800008BD214BD3F8803003F00703013B032B47
:1016900034D81F4AF3E71C4BD3F8843003F0070318
:1016A000013B032B2AD81B4AE9E7174BD3F88830B4
:1016B00003F00703013B032B20D8174ADFE7124B47
:1016C0001B6F13F0010F0CBF07200920D8E70E4B4A
:1016D000D3F85C3103F03003202B11D0302B11D024
:1016E000102B14BF01200720CAE70C4841F62771D0
:1016F000FFF74CFE0020C3E70520C1E70120BFE74C
:101700000420BDE70820BBE700400E40758C0000B8
:101710007B8C00007F8C00007B8C0000AC8B000079
:1017200038B52C4B984205460AD02B4B984207D02F
:101730002A4B984204D02A4841F23A51FFF726FE3C
:101740002846FFF787FF234B9D42044611D0224BCA
:101750009D4212D0214B9D4213D1224BD3F88040A1
:1017600004F00704042C2DD8DFE804F02A11151D1D
:1017700019001C4BD3F88440F2E71A4BD3F8884089
:10178000EEE7174841F26951FFF700FEEAE7BDE8CE
:101790003840FFF73FBDBDE83840FFF741BDBDE829
:1017A0003840FFF73ABDFFF7E5FC0E4B0446D3F88F
:1017B0000001C0F300600130FFF736FEB4FBF0F427
:1017C000204638BD064841F2BB51FFF7DFFD00243B
:1017D000F6E700BF030020000500240002001E0001
:1017E000AC8B000000400E4038B500F47813B3F520
:1017F000B01F05467FD02ED8B3F5402F69D011D841
:10180000B3F5802F54D006D843B1B3F5003F5AD07A
:1018100041F607311AE0B3F5202FF9D1BDE8384081
:10182000FFF7A8BCB3F5801F00F0A280B3F5A01F9E
:1018300057D0B3F5602FEBD15B48FFF70BFF0728BC
:1018400000F096800928E9D041F2FC215748FFF7C3
:101850009DFD002036E0B3F5381F5AD013D8B3F5FC
:10186000001F5FD00AD8B3F5D01F5DD0B3F5F01FCD
:10187000CED14F48BDE83840FFF752BFB3F5101F37
:10188000C6D14C48F6E7B3F5481F57D0B3F5781FDB
:1018900000F08280B3F5401FBAD14748FFF740FF00
:1018A000464B0446D3F82801C0F3012004302BE056
:1018B000FFF760FC414BD3F80C31C3F3082301332D
:1018C000B0FBF3F038BDFFF755FC3C4BD3F80831C3
:1018D000F3E7FFF74FFC394BD3F81431C3F304237C
:1018E000EDE73448FFF71CFF344BD3F8303103F0F9
:1018F0000303D840E6E72E48FFF712FF2F4B0446BC
:10190000D3F8200100F00F00FFF78EFDB4FBF0F0DC
:10191000D8E72748FFF704FF284BD3F82031C3F35B
:101920000113E6E72448A5E72348FFF7F9FE234B18
:101930000446D3F82801C0F30110E5E72048FFF77B
:1019400089FE0138072824D801A353F820F000BFEE
:101950005318000093190000931900007719000034
:101960009319000093190000711900007F190000FD
:10197000144B1868A6E7BDE83840FFF737BCFFF7FF
:10198000F9FB0E4BD3F80031C3F3042303FB000033
:1019900098E741F2333159E7FFF7ECFB044628465C
:1019A000FFF752FEB2E700BF06000E00AC8B00004E
:1019B00002001E00050024000300200000400E402D
:1019C000B800320028100020013838B50C46032832
:1019D00064D8DFE800F002441A2FB1F5007F04D389
:1019E000324842F22571FFF7D1FC314AC4F30804B2
:1019F000D2F86838002BFBD12E4A136A23F4FF7308
:101A000023F001032343136238BD7F2904D92748FB
:101A100042F23271FFF7BAFC254A04F07F01D2F896
:101A20006038002BFBD1234B1C6924F07F040C434E
:101A30001C61E9E77F2904D91C4842F24D71FFF788
:101A4000A5FC1B4A04F07F01D2F86438002BFBD1BF
:101A5000184B9C6924F07F040C439C61D4E7154D1E
:101A6000D5F890305B0704D5104842F25D71FFF75E
:101A70008DFC6B6A23F0300343F010036B62C4F3F8
:101A8000C311CB1C2A6B0C490F2B01EA020128BFA2
:101A90000F23214341EA03712963B5E7BDE83840CC
:101AA000024842F27771FFF771BC00BFAC8B0000B7
:101AB0000020C84300400E4000F8FF0F022810B578
:101AC0000C4604D0144842F28F71FFF75FFC134BB1
:101AD0005B6A13F0300F1BD0202C16D0302C17D09F
:101AE000B4B10D4842F2AA71FFF750FC0C4B0B4AFF
:101AF000D2F8901033EA0101FAD15B024ABFD2F862
:101B0000A0000120C0F3802010BD4FF40003EEE7D9
:101B10004FF44003EBE700BFAC8B000000400E40E9
:101B2000FF33E107022808B50CD129B1094B4FF466
:101B30008060C3F8A80059664AB1BDE80840022099
:101B4000FFF7BCBF044842F2E071FFF71FFC012021
:101B500008BD00BF00400E40AC8B000004282DE9FA
:101B6000F04704460F4691461FD83D4B3D4A13F8B7
:101B700000A03D4B13F80080F1B93C4B33F8103016
:101B80001366012303FA08F8D2F8903013EA080F1D
:101B9000FAD1B9F1000F5AD00125324A05FA0AF5F7
:101BA000D2F890302B42FBD151E0BDE8F0473048ED
:101BB00042F27461FFF7EABB2E4B022833F8106043
:101BC00047D1536A13F0300F43D12B4BDB6B5A05CF
:101BD00004D4274842F28361FFF7D8FB214A536AB5
:101BE000DB0705D5536A23F0300343F0100353623B
:101BF000224D1C4BA8441E664FEA8808D8F80030D6
:101C0000002BFBD0B9F1000F21D05544AD002B685B
:101C1000002BFCD0022C1AD1CFB1124F796A11F0EF
:101C2000010118D0012220212046FFF77BFFD7F8C1
:101C30009C40012200210220FFF790FFC4F30A011B
:101C40000220FFF7C1FE3E662B68002BFCD0BDE8EA
:101C5000F0870027CCE72046FFF730FFE7E700BF1B
:101C6000838C000000400E40888C0000988C00009F
:101C7000AC8B00008E8C000000300E408004F2100F
:101C8000112838B50C460FD000F00F000138072896
:101C900000F2EB80DFE810F0240066009A00E90013
:101CA0007D00B400E900C200042912D1FFF79EFABA
:101CB0000546A8B10021284600F056FA023C0A2C3D
:101CC00045D8DFE804F04A473137444444443D0FE7
:101CD0004D00052904D1664B1D68664B9D42E9D82D
:101CE0000025EBE70320052401221146FFF736FF0C
:101CF000FFF7A8FB0DB1FFF7B7FB5F4B5C67FFF782
:101D000063FA0446FFF736FAFFF742FBFFF7BAFB28
:101D100001462046FFF7CCFB002D5DD1284601216E
:101D2000BDE8384000F020BA5448FFF731FB0220EC
:101D30000446D9E75148FFF72BFB01240320D3E7E2
:101D400041F6E871BDE838404D48FFF71FBB41F64A
:101D5000ED71F7E701200324C6E700200424C3E760
:101D60000724C5E7062933D14548464D42F22C01E8
:101D7000FFF70CFB424842F23C01FFF707FBFFF77D
:101D8000F9F9FFF705FB404B0122C3F808260323AE
:101D900021E006293D4DEDD0013C092C2BD801A3B3
:101DA00053F824F0FD1D0000DB1D0000E91D0000BC
:101DB000F71D0000F71D00007F1D0000F71D00004B
:101DC000F71D0000F71D0000D51D0000304DE3E7B2
:101DD0002C4DE1E704232B6038BD01221146002081
:101DE000FFF7BCFE0223F6E7012211461046FFF77B
:101DF000B5FE0123EFE742F26701A3E70023EAE71C
:101E0000072904D0092906D042F2F1019AE71A4BBA
:101E100000221A67E0E7184B0122FAE74C1E072C54
:101E20001ED8DFE804F0201D1D161D1D0F0403221F
:101E30001149D1F85C3123F0300343EA0213C1F8B1
:101E40005C31C9E7012211460420FFF787FE012219
:101E5000EEE7012211460220FFF780FE0222E7E7AB
:101E600042F24F116EE70022E2E742F2262169E7D3
:101E70001C100020002D310100400E400148E801F7
:101E8000AC8B000080400E400010C84388400E40DC
:101E900084400E4010B504461120FFF7DBFB0428F8
:101EA00004D1274842F20F51FFF770FA01220021B6
:101EB0000220FFF753FE63781BB9A3780BB9E378D0
:101EC00023B11F4842F24B51FFF760FA237C012BEC
:101ED00004D11B4842F25251FFF758FA194A217CAB
:101EE000536A23F00103022908BF43F00103536240
:101EF000154B2178C3F8A014637AA18843EAC12363
:101F0000D362136BA07A217A03F07F630343E088E6
:101F100043EAC02343EAC11303310F2928BF0F212D
:101F200043EA01731363A37B617B1B0143EA013323
:101F3000E17B0B43217B43EA0143536310BD00BFA8
:101F4000AC8B000000400E400000C843EFF310804F
:101F500072B6704700B962B67047EFF31180602324
:101F600083F31188704780F311887047034B5868DA
:101F7000C0F30800003818BF0120704700ED00E0F2
:101F8000EFF31083DB0706D4EFF311805F2894BFD3
:101F9000002001207047012070470000034BD86BE0
:101FA00080F04000C0F38010704700BF00300E404A
:101FB00038B542EA0323B3F5007F05460C463ED010
:101FC00019D8B3F5807F36D00AD883B3012B21D03E
:101FD0001F4840F68E11FFF7D9F9002213461FE083
:101FE00040F201129342F3D11A4BD3F824321A0E65
:101FF000C3F3074314E0B3F5407F24D040F201322D
:10200000934210D040F201229342E1D1114BD3F818
:10201000283202E00F4BD3F82432C3F30722DBB29D
:102020002B60226038BD0B4BD3F82832DFE7094B19
:10203000D3F81C32F1E7074BD3F81C32D7E7054B36
:10204000D3F82032E9E7034BD3F82032CFE700BFC3
:10205000CC8C00000081E00F08B5FFF79FFF20B196
:10206000024AD2F8C830002BFBD108BD0000C6439D
:102070001A4B022810B5D3F830320C4612D0032880
:1020800013D0012814BFDBB2C3F307231B0323F4CF
:102090007042ECB95AB140F61D111148FFF776F9BC
:1020A000002010BDC3F30743F0E71B0EEEE70D4918
:1020B000CA6E22F470421343CB660120F1E709494E
:1020C000D1F8EC2022F470421343C1F8EC30F4E76D
:1020D000002AF4D040F62911DFE700BF0081E00FAD
:1020E000CC8C000000300E40F8B504460F46FFF7D8
:1020F00055FF78B3FFF7B0FF174B5B68C3F301439D
:102100009C4227D0154BD3F80061FFF733F8022C1F
:1021100005460FD1124BC6F3042606FB00069E426D
:1021200004D9104840F23161FFF730F90221284606
:10213000FFF7BEF9C4F1020210239340064A13616F
:102140000FB1FFF789FF2CB921462846BDE8F840BA
:10215000FFF7AEB9F8BD00BF00300E4000400E40A2
:10216000002D3101CC8C000013B50246FFF716FF9D
:10217000C8B152B90D4B0191D3F80041FEF7FAFFF7
:10218000C4F30422019902FB0002094B1B7843B1FE
:10219000084B9A4205D8022002B0BDE81040FFF774
:1021A000A3BF0020F8E702B010BD00BF00400E4002
:1021B0006E2C0020002D3101094942780B6823F470
:1021C000407343EA0223022A0B6008D1054B5B6A85
:1021D0009B0004D5044840F26D61FFF7D7B8704703
:1021E00000300E4000400E40CC8C0000224B4AF6DE
:1021F000E85210B5596B5A639A6FD207FCD41B6C26
:1022000013F003031EBF1D4A0124C2F8B44A8342DF
:1022100004D110B9194BC3F8B40A10BD032B00D078
:102220009BB9431E012B10D8134A4FF40023D362ED
:10223000936FDB07FCD4136C23F0030343F001031B
:1022400013640D4A536A1C03FCD50B4B9A6FD207DB
:10225000FCD41A6C22F0030202431A649A6F12F043
:102260000102FBD10038054C18BF01200129C4F838
:10227000B40A08BF5A63D0E700300E400000C643DE
:102280002DE9F04FA0F5E16389B00024B3F5966F16
:10229000CDE90244CDE90444CDE9064406468A4628
:1022A000934605D940F6EE215548FFF76FF8A3E0B5
:1022B000B0F5E16F534B8CBF0122002249D1D3F816
:1022C0001832C3F30721DBB2079104934FF416755C
:1022D0004FF4966748E0BBF1000F0ED0D9F85C20B0
:1022E00022F4FE4222F00202B6F5E16F42EA012238
:1022F00018BF02200243C9F85C20BAF1000F26D0B3
:1023000020460021FFF7B4FE044610B940F64B31D9
:10231000CAE701214046FFF7ABFE044610B940F67C
:102320005331C1E7384A536EBD4238BF3D4623F4AE
:10233000FF73E72D23F0010328BFE725B6F5E16F12
:1023400018BF43F0010343EA4503536654E00124F8
:1023500052E0D3F81832190EC3F3074307910493E0
:102360004FF496654FF4E167DFF89C90D9F84C4044
:102370000192C4F30174234605A902A8FFF718FED1
:10238000D9F8EC30019AC3F30128434606A903A803
:10239000FFF70EFE049BF01B079FF91A4143B1FBA8
:1023A000F5F299182CBF012300238F421ED3EBB9FD
:1023B000069A039FD31B4343B3FBF5F3FF182CBFCF
:1023C00001230023BA4211D383B9059B029AA3EBE0
:1023D000020C00FB0CF0B0FBF5F555192CBF0120E9
:1023E0000020AB4202D300283FF475AF044840F60A
:1023F0003C31FEF7CBFF0024204609B0BDE8F08F4A
:10240000CC8C00000081E00F00300E40334A08B54C
:10241000136FD16C11F0010F03F0060344D0002BB1
:1024200042D0132857D9143813288CBF10230823FF
:102430002A49013BCA6C180322F47F4240EA032375
:102440001343CB64264BCA6C1B88C2F30322283388
:10245000013202EB820003EB5303B3FBF0F3C86CD1
:10246000013B072B28BF072320F0EE6040EA0363FF
:1024700043F48013CB641B4BB3F90030002B12DB09
:1024800003F12800C0F34E030344500800EB42025E
:10249000B3FBF2F20B6D072A28BF072223F070036B
:1024A00043EA02120A6508BDD16C01F0010119432B
:1024B00004D109280FD90A380928B6E7D26CD20707
:1024C00002D50BB92728B0E7074840F69131FEF74F
:1024D0005DFF0023ACE70423AAE700BF00300E40F5
:1024E0006A2C00206C2C0020CC8C00000C4BD3F804
:1024F000803910B5044633B9012804D9094840F69B
:10250000AF31FEF743FF084A136F23F0070323435D
:102510001367064BBDE810401888FFF777BF00BF70
:102520000000C643CC8C000000300E40682C002018
:1025300038B55A4B02229A639B6B03F00F03934208
:10254000044607D0564840F64B21FEF71FFF0025F2
:10255000284638BD0389C82B04D9514840F6552177
:10256000FEF714FFA28823899A4204D94C4840F60A
:102570005621FEF70BFFB4F90C30C82B04DD484898
:1025800040F65721FEF702FF6378012B55D1A3884F
:10259000C82B04D940F65B214148FEF7F7FEE288DC
:1025A00042F210739A4204D93D4840F66821FEF782
:1025B000EDFEE3884A2B48D9B3F5FA7F47D340F6BE
:1025C000C312934294BF4FF000524FF04052334930
:1025D000B4F90C00CB6C23F0405323F00103002826
:1025E000A8BF43F001031343CB64D1F8EC30A288B9
:1025F00043F44073C1F8EC302A4B1A80CB6E43F0A1
:102600008073CB66284BD3F8800900B10420FFF714
:102610006DFF264B21891980254BB4F90C20A08829
:102620001A80FFF7F3FEA37BA3B1012B22D01C4835
:1026300040F6CE01FEF7AAFE0FE0022BAFD1A38831
:102640000A2BACD94FF42661A6E70022BFE74FF072
:102650008052BCE7114B174A9A65012260881146E7
:10266000FFF70EFE054640B90D4840F69F21FEF7E4
:102670008DFE6DE7094B104AEEE7084AD36B43F431
:102680008063D3636078FFF7B1FDA37AA3F12002E2
:1026900053425341044AC2F8943759E700300E4080
:1026A000CC8C0000682C00200000C6436A2C00205F
:1026B0006C2C002077402057372110B70C4B02229A
:1026C00010B59A63DA6B42F48062DA639A6FD207CC
:1026D000FCD403221A641B6C93420CBF0124002417
:1026E00004D0044840F6DD31FEF750FE204610BD10
:1026F00000300E40CC8C000038B50D46044618B3AF
:10270000012824D0022825D0032826D004280ED062
:10271000052825D0831F012B09D9082823D0092893
:1027200023D00A2803D10723EB40DB0704D4104849
:1027300040F21341FEF72AFE30200E4B01214443A4
:1027400001FA05F51D5138BD40F2FF33ECE74FF6B5
:10275000C073E9E740F6FF73E6E74FF47F43E3E732
:102760004FF6FF73E0E70F23DEE74FF44043DBE76C
:102770002F8D00000CA0004638B50D46044618B356
:10278000012824D0022825D0032826D004280ED0E2
:10279000052825D0831F012B09D9082823D0092813
:1027A00023D00A2803D10723EB40DB0704D41048C9
:1027B0004FF47971FEF7EAFD30200E4B01214443BE
:1027C00001FA05F51D5138BD40F2FF33ECE74FF635
:1027D000C073E9E740F6FF73E6E74FF47F43E3E7B2
:1027E0004FF6FF73E0E70F23DEE74FF44043DBE7EC
:1027F0002F8D00000CA0004470B505460E4614460F
:10280000FFF7A4FB296881EA040202EA06044C40AF
:102810002C60BDE87040FFF79DBB0000032838B571
:1028200004460D4607D9042808D0052803D0A0F196
:102830000803022B02D835F0011303D008487D218C
:10284000FEF7A4FD3020604300F180402A464FF09F
:102850000111BDE8384000F52040FFF7CDBF00BFB3
:10286000938D00002DE9F0410E4615461F460446A3
:1028700000285FD0012860D0022861D0032862D0F0
:1028800004280ED0052861D0831F012B09D9082800
:102890005FD009285FD00A2803D10720F040C30782
:1028A00003D43748BF21FEF771FD86EA050333F0F4
:1028B000030303D03248C121FEF768FD072D06F05F
:1028C00003064FF00F0149D84FEA85082D4804FA56
:1028D00008F201FA08F1FFF78FFF03212A4806FAF0
:1028E00008F201FA08F1FFF787FF1F2D03D92748E7
:1028F0009121FEF74BFD264C2C44A4001F2D276090
:1029000003D922489121FEF741FD9DF81830C4F803
:102910008030204A0123AB401F2DC2F8243403D954
:102920001A489121FEF732FD9DF81C30C4F800339F
:10293000BDE8F08140F2FF30B0E74FF6C070ADE780
:1029400040F6FF70AAE74FF47F40A7E74FF6FF700D
:10295000A4E70F20A2E74FF440409FE7A5F1080845
:102960004FEA88080C4804FA08F201FA08F1FFF768
:1029700043FF0321094806FA08F201FA08F1B2E719
:10298000938D000000A4004008A40040F78D0000D3
:102990008020851000A0004004A400400CA400404A
:1029A000F8B50D4616461F460446D8B301283CD05C
:1029B00002283DD003283ED004280ED005283DD063
:1029C000831F012B09D908283BD009283BD00A28AE
:1029D00003D10723EB40DB0704D4274840F21D1145
:1029E000FEF7D4FC26B1294620467FB3FFF784FECC
:1029F0003020604300F18040072D00F5204028D8AA
:102A00004368AA000F21914023EA010306FA02F26B
:102A10001343436076BB294620463FB3BDE8F840E8
:102A2000FFF76ABE40F2FF33D4E74FF6C073D1E739
:102A300040F6FF73CEE74FF47F43CBE74FF6FF73CB
:102A4000C8E70F23C6E74FF44043C3E7FFF794FE00
:102A5000CEE7A5F1080382689B000F21994022EA86
:102A6000010206FA03F313438360D3E7BDE8F8409D
:102A7000FFF782BEF8BD00BF938D0000022838B575
:102A800004460D4603D911484C21FEF77FFC6B79B3
:102A90001F2B03D90D484F21FEF778FCAB786A78DD
:102AA0009B0143EA82032A781343EA7843EA02133C
:102AB0002A7943EAC2236A7943EA0233AA790434C1
:102AC00043EA42432401024A135138BD5A8E0000A2
:102AD00000200440014B1860704700BF0000844292
:102AE000427801790378002A827870B514BF0426F1
:102AF0000026002AC27814BF10250025002A42793A
:102B00004FEA023242EA012242EA0302837914BF09
:102B100020240024002BC37942EA034343EA06033E
:102B2000027A43EA050314BF4FF400410021234316
:102B3000002A14BF4FF4003200220B431343014A12
:102B4000136070BD0020044070B506460C46154663
:102B500022B90D484FF42271FEF718FC1CB90B483E
:102B6000FEF742FE04460A4B6D00013CB4FBF5F44F
:102B700013EA04234FEA042504D0034840F2A521B8
:102B8000FEF704FC756170BDBE8E0000404105007B
:102B9000070080FF38B51E4B1E4D984204460ED0EC
:102BA000A8420CD003F50063984208D003F5806377
:102BB000984204D0184840F22E41FEF7E7FB40F659
:102BC000AA63E36041F20502002323606260134AB6
:102BD000A3606361E364A26423666367A367E3673A
:102BE0000B4B9C4209D0AC4207D003F500639C42DA
:102BF00003D003F580639C4201D1002323650023A9
:102C0000AC42A36502D0064A944200D1E36538BDC8
:102C10000000014000040140BE8E0000F9FF0100E9
:102C2000000C014038B52A4B984204460D4610D09E
:102C300003F5806398420CD003F58063984208D076
:102C400003F58063984204D022484FF45671FEF792
:102C50009DFB2046FFF79EFFA97B2A8A2368002957
:102C600042F0010214BF4FF48061002113430B4373
:102C70002A7D23602368002A14BF4FF000520022EF
:102C800013432360AB7C1BB1EB7C43F08003A36553
:102C90002B7B43F480536360D5E901122046FFF794
:102CA00053FF6B7B0BB11023E3606B7D1BB123687B
:102CB00043F480332360AB7DEA7D1B07120503F0EC
:102CC000E04302F4E002134323662B78E36038BD4F
:102CD00000000140BE8E000003695B06FCD5416325
:102CE000704700002DE9F047374FDDE908840646BC
:102CF000154699468A4641B9082323704FF4D96393
:102D0000A360324B6760E360FEE75AB1531E134283
:102D100008D00823237040F2CB63A3602B4B67607D
:102D2000E360FEE7FFF719F9002D08BF04254D45C4
:102D300038BF4D46D6F808E06B1E13EA0E0FC5F1FA
:102D4000000202EA0E0208BF0025154409F1FF3314
:102D5000AA4413EA0A0FC9F1000202EA0A0208BFF4
:102D60004FF0000902EB090372680132A2EB0E0179
:102D7000A3EB0E0E7145844615491AD2B8F1000F27
:102D800002D09B1AC8F80030162540F22273C4E91D
:102D90000231257067606046FFF7E5F840F2D763BF
:102DA000A3600A4B25706760E36000252846BDE8F4
:102DB000F087B360002323704FF4E563C4E9023168
:102DC0006760FFF7D0F8F1E7238F0000B28F0000B3
:102DD0009A8F000030B50C4685B011461D461BB9D0
:102DE000039200F019F80399064801950023009317
:102DF00004220123002C18BF2046FFF773FF05B003
:102E000030BD00BF2C100020024B00221A6002F0DF
:102E1000B9BE00BF70500020FEE702F0CBBE00003C
:102E2000014B1860704700BF7050002070470000D1
:102E30002DE9F041044608B9FFF7EEFFFFF796F8D9
:102E4000194E1A4D074638B12023237040F219332A
:102E5000C4E902356660FEE7154B1B78012B08D0EC
:102E600002232370666040F21D33C4E90235BDE8D9
:102E7000F081DFF8408098F80030F92B05D91E2347
:102E80002370666040F22233EFE7FFF766F898F8A8
:102E90000030013388F80030FFF765F8277066606E
:102EA00040F22D33E1E700BFCC8F0000BD90000061
:102EB0002C5500202D55002070B5044608B9FFF7A9
:102EC000ABFF264B1E78012E09D013232370244B11
:102ED000636040F2F633A360224BE360FEE7224BCF
:102EE0001B88022B09D8092323701D4B636040F215
:102EF0000143A3601B4BE360FEE71C4D2B784BB1F5
:102F00001F232370164B636040F20443A360154BEC
:102F1000E360FEE7FFF734F848B11F232370104B3E
:102F2000636040F20743A3600E4BE360FEE701F0ED
:102F3000C7FC0F4B0F4A18700F4B2E7018700C23E4
:102F400058430E4B1B5813600D4A136001F066FF87
:102F500002F056FEBDE87040FFF75EBF0E52002043
:102F6000CC8F0000A7900000545600202C55002064
:102F70002352002048560020225200202C520020CC
:102F80004456002008B501F09BFCA0F140035842D4
:102F9000584108BD30B14368C1F8F0308368DB6840
:102FA000C361704791F83030022B03D0072B05D056
:102FB000034B00E0034BC1F8F0307047024BFAE7D7
:102FC000789D00003F90000046900000044BC1F83F
:102FD000F03018B1826802B1D368C361704700BF96
:102FE000789D00000023C0E9003303817047036827
:102FF00010B533B901220281C1E909330160416092
:103000001CE0028991F833400132028193F83320A9
:10301000A2420CD85B6A002BF8D14B6243688B62EA
:103020005962ECE7C1E909325162996206E09A6A95
:10303000002AF7D1C1E909329962016010BDC36A63
:103040005BB19A68526A4AB9C3E902221A8A013A04
:103050001A820023C0E90933C3627047D0E909210D
:1030600011B991629A60F1E74A620AB9D960EDE755
:103070009162EBE738B5C56AAB685B6A4BB1FFF7A5
:10308000DEFFC562014605F10800BDE83840FFF7E4
:10309000AEBF38BD054B40220021013AC3E9001103
:1030A000198103F10C03F8D1704700BF2C520020A6
:1030B000F8B5044608B9FFF7AFFE964D6A68D2B17D
:1030C0002B68954E4BB92346296B94489200FFF725
:1030D00081FE306023780BB1F8BD3360904B3268CD
:1030E0001A60904A6B6813608F49904A9B00136086
:1030F0000A6813440B602A89B2B12346296B8C48B5
:103100001201FFF767FE8B4B18602378002BE3D189
:10311000894B8A4A18602B8913808349884A1B018E
:1031200013600A6813440B606A69002A27D02B6970
:10313000844E002B62D12346296B83489200FFF70F
:1031400049FE30602378002BC6D1804B2A7E1A704E
:103150007F4BEA691A607F4B32681A606B69EA68D4
:1031600064215A43B2FBF1F27B490A607B4A6E4903
:1031700013607B4A9B0013600A6813440B606A6A01
:10318000002A28D02B6A774E002B39D12346296B91
:1031900075489200FFF71EFE30602378002B9BD10C
:1031A000724B95F828201A70714B32681A606B6A5E
:1031B000EA6864215A43B2FBF1F26E490A606E4A32
:1031C000E96A13606D4A9B0013606D4A11605649AD
:1031D0000A6813440B606B4E6B6B336002F0C4FDE6
:1031E00003F00AFC054668B101232370664B636057
:1031F0004FF4D773A360654BE3606DE73360A4E7DA
:103200003360CDE703F0F8FC3368984209D2092314
:1032100023705D4B63604FF4D973A3605B4BE36035
:10322000FEE703F0E9FC3368594F984240F0D8803C
:103230003D603268B2F57A7F07D900230020012172
:1032400004F092FD4FF47A754543524B524A1D608B
:1032500000231370514A1370514A1360514A13608E
:10326000514A1370514A1370514A2046137002F0AC
:1032700099FA0A23B0FBF3F04E4B18602578002D25
:103280007FF42AAF274A136853B12549086838B13B
:103290000146013B41F8045BFBD1116801F0ECFFF2
:1032A000454B00251D7001F003FBFFF7F3FE434B78
:1032B0001D60434B1D80214B1B88002B40F09C80E0
:1032C000404A00231360404A1380404A1360404A3A
:1032D0001380404A1360404A2046138001F048FFA3
:1032E0002378002B7FF4F8AE204601F063FD2378AD
:1032F000002B7FF4F1AE204602F07AFB2378002BFE
:103300007FF4EAAE00F0C2FBFFF790FD334B0122E1
:103310001A70E1E640100020785000204F90000025
:103320007C500020805000207450002084500020E9
:1033300062900000885000208C50002090500020A7
:1033400094500020A050002074900000985000205D
:103350009C500020A4500020A8500020AC50002019
:10336000B0500020C05000208D900000B8500020C8
:10337000C4500020C8500020CC500020D050002065
:10338000BC500020B4500020CC8F0000C990000039
:10339000D8500020D45000202C5500202D5500205E
:1033A000445600204856002022520020235200207C
:1033B0003455002030550020565600200852002079
:1033C0000C5200201C5200202052002024520020C9
:1033D00028520020385500203C5500200E52002075
:1033E00003F00AFC2B4602460121002004F0BCFC3D
:1033F0003368584338601CE7204600F05DFF2378AF
:10340000002B3FF45DAF67E690F833300B490C2298
:10341000534330B5CA58CC1832B901252581C0E9CB
:103420000422C850606030BD258901352581002403
:10343000026144615061C850F5E700BF2C52002082
:1034400090F833200B490C235A4330B58C588B1815
:1034500034B901251D81C0E904448850586030BD4D
:103460001A8901321A81002202615A684261106190
:10347000F4E700BF2C52002010B5044690F833004A
:1034800001F02EFA084B94F833201B789A4220461C
:1034900006D1FFF7D5FF2046BDE81040FDF745BC3B
:1034A000FFF7B2FFF7E700BF2252002038B50C4605
:1034B00091F8321007290546049807D802390529E2
:1034C00006D8DFE801F0060605052525FF293AD1D3
:1034D00038BDE267A4F88030606415B12046FFF77C
:1034E000AEFD21462846FFF771FD94F83230032BDC
:1034F00006D104F1580003F0B9FA08B1FFF78CFCCB
:103500002046FFF7B9FF0023238684F83230DFE737
:10351000E267A4F88030606415B12046FFF78FFDA4
:1035200021462846FFF752FD94F83230072B06D18A
:1035300004F1580003F09AFA08B1FFF76DFC00237C
:1035400023860423E1E7BDE83840FFF765BCD0E9F6
:103550000032934210B50FD01C690021A24215BF62
:103560006161C3E90412C3E90412C2E9043116BF60
:10357000136102600460436010BD000070B5044632
:10358000D4E9043590F83300124A0C21BDB973B95F
:103590004143551853502B816B6001F0B7F900235C
:1035A000C4E904332046BDE87040FDF7D4BB48436E
:1035B00016183189013931815D611350EFE701FB44
:1035C00000221189013911812B610BB95560E6E7A1
:1035D0005D61E4E72C52002013B5044670B1084B3E
:1035E0001B78012B0AD10023CDE90033054A816FF6
:1035F0000346054803F098FA044B1C6002B010BD66
:1036000034550020AD380000E0500020DC50002090
:10361000F8B50446A8B1114B1B78012B11D1456FA9
:103620000F4E7DB90F4B1F6803F0E6FA32682B4648
:10363000511E0D461946E7FB0051284604F094FB45
:10364000A067F8BD03F0D8FA32680023511E0E4679
:103650001946E5FB00613046F0E700BF3455002015
:10366000B4500020305500202DE9F7435E4B1B7805
:10367000012B00D0FEE75D4B93F80080B8F1000FFE
:1036800040F09680FEF769FC594F5A4C97F800902D
:10369000594D064601F014F940280346387000F0F1
:1036A0008A800C20DFF85C814343B9F1400F58F861
:1036B0000330236003D101F0A3FCAFF30080226844
:1036C0002B68DFF844919A4218D1002001F0C0FD28
:1036D000012802D0286802F065FB99F800303BB160
:1036E0002068836F0BB9FFF793FF2068FFF774FF23
:1036F000304603B0BDE8F043FEF735BC99F8003022
:103700001BB3DFF80891D9F800309B6FEBB13B4851
:1037100001A903F02DFA30B9D9F80030019A3748E1
:103720009A6703F0A3F9D9F800309A6F6AB993F851
:10373000330000EB400008EB8000FFF708FF3B7808
:103740000C22534358F8033023602268D2F8C43067
:103750000133C2F8C4302A4A1368013313603B783E
:10376000402B33D02B682268934215D0A3B102F0CE
:1037700021FA2B68D3F8CC3098421FD302F01AFA02
:103780002B68D3F8CC30C01A2A68D2F8D030C2F8EF
:10379000C8001844C2F8D000246802F00BFAC4F83C
:1037A000CC0002F06CFA3046FEF7DDFBBFF36F8F02
:1037B00003B0BDE8F083C4F80080CCE702F0FAF96A
:1037C0002B68D3F8CC20D2431044DDE701F010FC85
:1037D0002C681CB102F0EEF9C4F8CC00FDF744F9F6
:1037E000AFF30080DDE700BF2C5500202D550020F1
:1037F000235200204856002044560020E05000206C
:103800004C5600202C52002034550020DC50002063
:103810002DE9F041044608B9FFF7FEFAFEF7A6FBD2
:103820001E4F1F4E38B12023237040F24533C4E9A8
:1038300002366760FEE71B4B1B78012B08D0022382
:103840002370676040F24933C4E90236BDE8F08175
:10385000DFF8548098F800302BB91F23237067607D
:1038600040F24E33F0E7FEF778FB98F80050013D48
:10387000EDB288F800503DB1FEF775FB2D232370A3
:10388000676040F25633DFE7FEF76DFBFFF7ECFEB3
:10389000257067604FF45873D6E700BFCC8F0000E7
:1038A000AF9000002C5500202D55002038B50E4B50
:1038B0001B78012B0D4616D1FEF74FFB0023AB679B
:1038C0000A4B1B6893F833300446094803EB430363
:1038D00000EB8300FFF73BFE2046FEF744FBBDE80C
:1038E0003840FFF7C1BE38BD34550020DC50002001
:1038F0002C520020F8B50C46FEF72FFB94F832301E
:10390000013B0746062B48D8DFE803F0544704473D
:103910005B47040094F83030042B08BFE36A4FF093
:10392000000608BF5D6AE667A4F8806018BF3546E8
:1039300002F040F960642046FFF781FB94F83230D2
:10394000032B31D1FFF798FD84F832604FF44073B8
:10395000238615B395F8333095F834209A421CD05D
:1039600094F833209A4218D1284600F091FE95F839
:103970003430834228BF0346D9B295F833308B42A6
:103980000BD0284601F0B6FD2846FCF799FD95F8C6
:10399000332001462E20FCF741FF3846FEF7E3FABC
:1039A000BDE8F840FFF760BE072B04BF042384F88E
:1039B0003230CBE7002384F832302046FFF75CFD3D
:1039C000EBE7042384F83230E7E70000F7B504465C
:1039D0000D4611B303F010F9114B1A680026571E5B
:1039E00046F1FF31E5FB00713346384604F0BCF97F
:1039F000CDE9006601460B4A234604F1580003F066
:103A000093F808B1FFF708FA0323204684F8323010
:103A100003B0BDE8F040FFF7B1BD0223F5E700BFFA
:103A2000B4500020F538000037B5144D0B46114650
:103A30002A6882F83030002382F83130104A127838
:103A400004463AB10F4A104812680191936703F097
:103A50000DF801992868FFF7B9FF64B1296804F1EE
:103A60000800CC62FFF7C3FA2968204603B0BDE81E
:103A70003040FFF78FBA2B68DC62F5E74456002030
:103A800034550020DC500020E0500020774B1B789C
:103A900082B0DBB28DF80530754B1B68DBB28DF858
:103AA0000730744B1B78DBB28DF80530724B1B78F6
:103AB000DBB28DF80530714B1B68DBB28DF8073037
:103AC0006F4B1B6ADBB28DF807306E4B1B78DBB295
:103AD0008DF805306C4B1B78DBB28DF805306B4BE5
:103AE0001B88DBB28DF80630694B1B88DBB28DF882
:103AF0000630684B1B78DBB28DF80530664B1B88AF
:103B0000DBB28DF80630654B1B88DBB28DF80630D2
:103B1000634B1B88DBB28DF80630624B93F828307C
:103B2000DBB28DF80730604B1B78DBB28DF80530C7
:103B30005E4B1B88DBB28DF806305D4B1B88DBB219
:103B40008DF806305B4B1B88DBB28DF806305A4B84
:103B50001B88DBB28DF80630584B1B88DBB28DF822
:103B60000630574B1B88DBB28DF80630554B5B8D0A
:103B7000DBB28DF80730544B1B78DBB28DF8053083
:103B8000524B1B88DBB28DF80630514B1B78DBB2F1
:103B90008DF806304F4B1B6ADBB28DF807304E4B69
:103BA0001B78DBB28DF805304C4B1B88DBB28DF8EF
:103BB00006304B4B1B88DBB28DF80630494B1B6837
:103BC000DBB28DF80730484B1B78DBB28DF806303E
:103BD000464B1B78DBB28DF80530454B1B78DBB2CA
:103BE0008DF80530434B1B78DBB28DF80530424B26
:103BF0001B78DBB28DF80530404B1B78DBB28DF8BB
:103C000005303F4B1B78DBB28DF805303D4B1B88F0
:103C1000DBB28DF806303C4B1B78DBB28DF80530FB
:103C20003A4B1B88DBB28DF80630394B1B88DBB270
:103C30008DF80630374B1B78DBB28DF80530364BEC
:103C40001B88DBB28DF80630344B9B8CDBB28DF8D1
:103C50000730334B1B88DBB28DF806309DF80530FA
:103C60009DF806309DF8073002B0704780100020A4
:103C70007C10002078100020FC50002084100020D0
:103C800000510020881000202C5100208A100020B4
:103C90008C1000208E100020941000209010002026
:103CA0009210002030510020961000209810002023
:103CB0009A1000209C1000209E100020A0100020D0
:103CC000A210002064510020A4100020A6100020A3
:103CD000B010002094510020B1100020B21000203C
:103CE000A8100020AC100020B6100020B410002056
:103CF000B5100020BA100020BB100020BD1000201D
:103D0000BC100020BE100020C0100020B810002001
:103D1000C2100020C4100020C6100020C051002096
:103D2000C810002010B4074C2468A4F8B02000226A
:103D3000C4F8A810C4F8AC2001215DF8044B1A4661
:103D4000FFF772BE445600202DE9F04F2DED028B97
:103D500083B0DDE90E6408EE102A05468A469846CF
:103D60000CB9FFF759F80FFA88F3002B0093C0F253
:103D70005081FEF7FBF8002800F0468120232370D5
:103D80009C4B636040F23513A3609B4BE360FEE7FE
:103D90001F232370974B636040F23913A360964B47
:103DA000E360FEE702232370924B63604FF49F733E
:103DB000A360914BE3604FF0000B57E047F6FF63C1
:103DC00008EA0303581E01280DD9042B0BD0082B39
:103DD00009D008232370874B63604FF4A373A3605B
:103DE000854BE360FEE72868844B984209D00C239A
:103DF0002370804B63604FF4AC73A3607E4BE36031
:103E0000FEE708F4807301930EB100233360FEF7E0
:103E1000A4F808F00F09B9F1040F074607D0B9F16B
:103E2000080F42D0FEF79FF8FEF7F6FF7AE02A6A05
:103E30003AEA020302EA0A0B1ED1019B13B122EAFD
:103E40000B022A626E4A12680AB1C2F8ACB00EB117
:103E50006A6A32603846FEF786F800222270654AA8
:103E600062604FF4BB72A260634AE260584603B0DE
:103E7000BDEC028BBDE8F08F009B002B08DAFEF74B
:103E800072F81D2323705B4B636040F27D138FE754
:103E90005C4B1B78002B3BD0FEF765F82D2323707D
:103EA000544B63604FF4C27382E72A6A12EA0A0B2A
:103EB00016D0019B13B122EA0B022A62504A126803
:103EC0000AB1C2F8ACB00EB16A6A32603846FEF789
:103ED0004AF800222270474A62604FF4D172C2E76A
:103EE000009B002B08DAFEF73EF81D222270414AA3
:103EF000626040F2A912B6E7424B1B7843B1FEF76D
:103F000032F82D2222703B4A62604FF4D872AAE741
:103F1000284618EE103A42465146FFF703FF38464E
:103F2000FEF721F8364FFFF79FFBFEF716F83B68C8
:103F300093F83120032A4BD8DFE802F002263E3204
:103F40000EB15B6C3360002323702A4B636040F238
:103F50002D23A360284BE3603B68D3F8ACB0019BF2
:103F60004BB1B9F1040F02D0B9F1080F3AD12A6A66
:103F700022EA0B022A62FDF7F6FF002222701D4A98
:103F8000626040F26F226EE70EB15B6C3360FDF74A
:103F9000EAFF21232370174B63604FF40E7307E78A
:103FA0000EB100233360FDF7DEFF22232370114B97
:103FB000636040F24123FBE60EB15B6C3360FDF7BA
:103FC000D2FF312323700B4B63604FF41373EFE682
:103FD0000090FDF7C8FFFEF71FFF23780098002B25
:103FE000BAD0E8E60090FDF7BEFFFEF715FF009897
:103FF000C1E700BFD09000004E910000464C414701
:10400000445600202D550020FDF7BAFF00287FF40C
:10401000BFAE094B1B78012B7FF4C4AE002D7FF49B
:10402000CDAE0A232370054B636040F24313A360B7
:10403000034BE360FEE700BF2C550020D09000004A
:104040004E910000054B064AC3610023436113688B
:1040500083610BB9106070475861FBE7789D0000E1
:10406000085200202DE9F84F05460F4693461C469E
:104070000BB9FEF7D1FEFDF779FFDFF88490DFF88A
:104080008480064638B1202323705523C4E90238C2
:10409000C4F80490FEE73DB90A2323705823C4E90D
:1040A0000238C4F80490FEE7FDF757FF2C22314692
:1040B0008246284604F030F80F4BC5F820B0C5E919
:1040C000003705F10800FEF78DFF2846FFF7BAFF1D
:1040D0000A4A13880133138029463A463720FCF7F1
:1040E000A9FE5046FDF73FFF70232670C4E9023851
:1040F000C4F80490BDE8F88F464C41470C520020AC
:10410000D09000005991000010B50023038690F86C
:104110003230C0F8AC1004464264072B1AD8DFE8EE
:1041200003F01212040412121717032B05D1583092
:1041300002F09CFC08B1FEF76FFE2046FFF79CF9E9
:10414000002384F832302046BDE81040FEF777BFE8
:104150000423F6E7FEF760FEF5E700002DE9F843DB
:1041600005460F4616461C460BB9FEF755FE4E4B4C
:104170001B78012B0CD0022323704C4B636040F260
:104180003233A3604A4BE36000252846BDE8F8833C
:104190004DB90A232370454B636040F23733A36067
:1041A000434BE360FEE747F6FE731E4209D0082347
:1041B00023703E4B636040F23A33A3603C4BE360B4
:1041C000FEE72A683B4B9A4209D00C232370374BF9
:1041D00063604FF45073A360354BE360FEE701F07A
:1041E000E9FC8146FDF7B9FEB6F5004F80460BD0DD
:1041F00048F201039E421BD036B1012E18D0FDF7C4
:10420000B2FEFEF709FE02E0296A39432962AF686F
:10421000C5F8249087B94046FDF7A5FE234B63609F
:1042200040F262332770A360214B2D6AE360ACE754
:10423000296A21EA0701E9E738467F6AB0F8B03019
:1042400003F00F03042B07D0082B0FD04046FDF7D7
:104250008AFEFEF7E1FD0EE0D0F8A8102B6A31EAE5
:10426000030308D14A46FFF74FFF04E0296AD0F85C
:10427000A8301940F6D1002FDED14046FDF773FE7D
:10428000330401D4FFF7F0F9FDF767FE2D6AFDF75F
:104290006AFE00232370054B636040F2A333A360E2
:1042A000034BE36071E700BF2C550020D090000065
:1042B00043910000464C4147154BF0B51C68154B27
:1042C0001E880025721E04F1100192B22B46AFB277
:1042D000BA4213D8110104EB0212635053601381E8
:1042E000D3600D4A1381D3809680146003700B4B0A
:1042F00043605D2383600A4BC360F0BD41E9041352
:1043000021F8083C41F8043C01351031DFE700BFDB
:104310008C50002090500020105200206691000028
:10432000D8910000428910B582B1094B01681C6820
:104330000C6041681960D988891AD980998811441C
:1043400099800023C0E9003343818381104610BD6A
:104350001052002038B504460D461022002103F00B
:10436000DBFE258138BD00002DE9F74F0C9C064689
:104370008A4617461D460CB9FEF74EFDFDF7F6FDC1
:1043800048B120232370864B636040F23313A3604F
:10439000844BE360FEE74EB90A232370804B6360D1
:1043A0004FF49B73A3607F4BE360FEE7C7F30E03FC
:1043B0004BB1082323707A4B636040F23913A3603A
:1043C000784BE360FEE73268774B9A4209D00C23C2
:1043D0002370734B636040F23D13A360714BE36045
:1043E000FEE73FB2002F0CDBFDF7CAFD48B11F23EB
:1043F00023706B4B63604FF4A073A360694BE36061
:10440000FEE76A4B93F80090B9F1010F1CD1FDF75C
:10441000A4FD96F82830DFF89CB18046F3B9DBF8AC
:104420000030736286F828900DB1F26A2A609A6BA8
:10443000326240469E63FDF796FD00232370584B81
:1044400063604FF4AA7305E002232370544B63604A
:1044500040F24513A360534BE36014E0D6F8249078
:10446000DBF80020914521D1FF2BDFF834914D4F2F
:104470000CD1FDF778FD1E232370C4F8049040F2A0
:104480005D13C4E9023703B0BDE8F08F013386F84D
:1044900028300DB1F36A2B604046FDF764FD2323FD
:1044A0002370C4F8049040F26913EAE7002F0BDA96
:1044B000FDF759FD0DB100232B601D232370384BF0
:1044C00063604FF4BB73C5E7394B1B785BB1FDF7F5
:1044D0004AFD0DB100232B602D232370304B636008
:1044E0004FF4C173B6E792F8331099F833308B422A
:1044F0000BD9484600F0FEFF4846FBF7E1FF99F86C
:10450000332001462D20FCF789F95246042130461C
:10451000FFF78AFA4046FDF726FDFFF7A5F8FDF7FD
:104520001CFDDBF8003093F83120032A32D8DFE895
:1045300002F00213271D0DB15B6C2B60002323706A
:10454000174B63604FF4D073A360164BE36003B066
:10455000BDE8F04FFDF707BD0DB15B6C2B6021236B
:1045600023700F4B63604FF4D573EDE70DB100235B
:104570002B60222323700A4B63604FF4DA73E3E766
:104580000DB15B6C2B6031232370054B63604FF4DE
:10459000DF73D9E70190FEF73FFC0198D7E700BF32
:1045A000E7910000679200004D5554582C550020AB
:1045B0002D55002044560020054B064AC3610023B8
:1045C0004361136883610BB9106070475861FBE762
:1045D000789D00001C5200202DE9F04705460F464B
:1045E00014460AB9FEF718FCFDF7C0FCDFF880900E
:1045F000DFF88080064638B1202323705223C4E9B7
:104600000238C4F80490FEE73DB90A23237055230D
:10461000C4E90238C4F80490FEE7FDF79EFC34229A
:1046200031468246284603F077FD0F4B05F108001E
:10463000C5E90037FEF7D6FC2846FFF7BDFF0B4A59
:1046400013880133138029463A462920FCF7F2FBF0
:104650005046FDF788FC6C232670C4E90238C4F884
:104660000490BDE8F08700BF4D55545820520020FB
:10467000E791000073920000836B00F138028B42D7
:10468000186A01D11060704703F120020346F6E773
:10469000836B3F2003B970479A6822B192F83320A8
:1046A000904228BF10461B6AF4E700002DE9F04F46
:1046B000054685B08B4614460AB9FEF7ADFBFDF7FB
:1046C00055FCDFF89481604F40B12023237040F205
:1046D0005723C4E90237C4F80480FEE745B90A232A
:1046E000237040F25A23C4E90237C4F80480FEE77D
:1046F000CBF30E0343B10823237040F25D23C4E9DA
:104700000237C4F80480FEE72A68504B9A4208D06A
:104710000C23237040F26123C4E90237C4F80480FB
:10472000FEE74B4B1B78012B0AD002232370C4F801
:10473000048040F26523C4E9023705B0BDE8F08F7C
:10474000DFF818A1FDF709FC6A6ADAF800309A422E
:10475000814608D0FDF707FC1B232370C4F80480B2
:104760004FF41B73E7E701F025FA95F82830029023
:10477000013BDBB2E86285F828304BB14846FDF7D3
:10478000F2FB23232370C4F8048040F27D23D2E798
:10479000DAF800002946FFF76FFFAE685EB96E6277
:1047A00085F828604846FDF7DEFB2670C4F80480D3
:1047B00040F28A23BFE7DAF8001091F8333091F81D
:1047C00034600393B34220D00846FFF761FFB04244
:1047D00028BF3046039BC6B2B34216D20846FEF746
:1047E000CDFEDAF8000080F83360FBF769FE324650
:1047F00001462E20FCF712F8304600F071F8DAF886
:104800000000FEF71DFE134B1E70A96869620123AC
:1048100085F828308B6B2B62029B8D6300930023FD
:104820001A462846FEF742FE4846FDF79CFB1BF45D
:10483000004F01D1FEF718FF00232370C4F8048055
:1048400040F2AD2377E700BF5B9200004D5554580E
:104850002C55002022520020E791000044560020F1
:104860002DE9F341846B0546012714B902B0BDE878
:10487000F081D4F8208001F09DF92146E0620646DF
:104880002846FFF7F9FEA16821B984F82810616273
:104890004446EAE784F828708B6B23620023656244
:1048A0001A468C6320460096FEF700FEF0E70000F3
:1048B000024B0022C3E90022704700BFF0510020E4
:1048C00008B5064B186828B9586801F08DF92030F2
:1048D000C0B208BD01F088F9FAE700BFF05100202E
:1048E0001F28094A07D84FF0004323FA00F0136845
:1048F0000343136070470123C0F13F0003FA00F047
:104900005368184350607047F05100201F280A4B2D
:1049100008D84FF0004222FA00F01A6822EA00029A
:104920001A6070470122C0F13F0002FA00F05A6895
:1049300022EA00025A607047F05100202DE9F34747
:104940000A9C0746894616461D460CB9FEF764FACE
:104950000FFA86FABAF1000F0ADABFB90A232370F8
:104960006A4B63604FF49373A360694BE360FEE7A7
:10497000FDF7FCFA0028F0D020232370634B63601E
:104980004FF49173A360624BE360FEE7C6F30E063B
:104990004EB1082323705D4B636040F22913A3607E
:1049A0005B4BE360FEE73A685A4B9A4209D00C230E
:1049B0002370564B636040F22D13A360544BE360A9
:1049C000FEE7BAF1000F0CDBFDF7DAFA48B11F235E
:1049D00023704E4B63604FF49873A3604C4BE360BD
:1049E000FEE74D4B1B78012B17D1FDF7B6FA3E6A57
:1049F000804606B3013E3E620DB17B6A2B604046A5
:104A00003E6AFDF7B0FA00232370404B636040F22A
:104A10004313A3603E4BE36009E0022323703B4B4A
:104A2000636040F23513A360394BE36000263046E3
:104A300002B0BDE8F087BAF1000F0CDA05B12E60C4
:104A400040463E6AFDF78FFA1D2323702F4B6360AB
:104A500040F25113DDE7314B1B785BB105B12E609D
:104A60004046FDF780FA2D232370284B636040F207
:104A70005D13CEE74A4606213846FEF7D5FF40468D
:104A8000FDF771FAFEF7F0FDFDF767FA244B1B689E
:104A900093F83120032A31D8DFE802F00212261CF5
:104AA0000DB15B6C2B6000232370184B63604FF4D7
:104AB000BA73A360164BE3603E6AFDF754FAB6E79B
:104AC0000DB15B6C2B6021232370104B63604FF49E
:104AD000BF73EEE70DB100232B60222323700B4B35
:104AE00063604FF4C473E4E70DB15B6C2B6031235A
:104AF0002370064B63604FF4C973DAE70190FDF74A
:104B000032FAFEF789F90198D6E700BF81920000DA
:104B1000FD92000053454D412C5500202D5500209D
:104B2000445600202DE9F3470646884614460AB944
:104B3000FEF772F94EB90A2323703E4B636040F2D0
:104B40002623A3603C4BE360FEE747F6FF5518EAD7
:104B5000050509D008232370364B636040F22923F2
:104B6000A360354BE360FEE73268344B9A4209D0CC
:104B70000C2323702F4B636040F22F23A3602E4B36
:104B8000E360FEE72E4B1B78012B09D00223237034
:104B9000284B636040F23323A360274BE36038E087
:104BA00001F008F88146FDF7D8F9B7680546F7B176
:104BB00008F4007A002339461A467F6ACDF800903F
:104BC0003046FEF773FCBAF1000F01D0002FF1D18F
:104BD0002846FDF7C8F918F4004F01D1FEF744FD4F
:104BE000144B63600025257040F26523D4E7356AD5
:104BF000DFF840A0DFF840806B1C0ED1FDF7B3F961
:104C00001E2323704FF41173C4E90238C4F804A0C2
:104C10003D46284602B0BDE8F0870135C6E908598F
:104C2000FDF7A1F940F24F23C4E902382770C4F818
:104C300004A0EEE781920000F392000053454D413D
:104C40002C550020054B064AC361002343611368BD
:104C500083610BB9106070475861FBE7789D0000D5
:104C6000385500202DE9F84F05460F4693461C465F
:104C70000BB9FEF7D1F8FDF779F9DFF88490DFF88A
:104C80008480064638B1202323705823C4E90238B3
:104C9000C4F80490FEE73DB90A2323705B23C4E9FE
:104CA0000238C4F80490FEE7FDF757F92C2231468C
:104CB0008246284603F030FA0F4B2B6005F10800BE
:104CC000C5F820B06F60FEF78DF92846FFF7BAFFF0
:104CD0000A4A13880133138029463A462F20FCF7ED
:104CE000A9F85046FDF73FF973232670C4E902384E
:104CF000C4F80490BDE8F88F53454D413C55002061
:104D00008192000007930000F8B5064608B9FEF747
:104D100083F8FDF722F91F4B00251D801E4B1D60F7
:104D20001E4B1D601E4B1D81FDF71DF9FDF715F98A
:104D30001C4B1C68FDF717F974B9FDF70EF91A4BF7
:104D40001D68FDF710F905BB184B7360A423B36011
:104D50003570174BF360F8BDFDF7FFF8C4E9345523
:104D6000C4F89850C4F8DC50C4F8C450A4F8BE503D
:104D7000A4F8C050074600F01DFFA4F89050C4F8F6
:104D8000CC00D4F8EC403846D4E7FDF7E6F8AC8523
:104D9000AD69D6E7425500204056002090570020CC
:104DA000105200205056002024520020139300007F
:104DB0009993000000B5104A104900231370104A5F
:104DC0008BB013700322CDE90632CDE904330D4ACE
:104DD0000890126803920C4A0C48126802920C4A1E
:104DE000126801920B4A127800920B4A00F04EFAB8
:104DF0000BB05DF804FB00BF445500208693000013
:104E00003E550020AC500020A850002048550020FE
:104E1000A4500020985000202D4E000008B500F04E
:104E2000C9FE014B186008BD045200202DE9F04F67
:104E300085B06846FFF768FF684600F0B3FC9DF850
:104E4000003005460BB1FDF7E7FF5C4B18684FF0EB
:104E50000008A842C24642F2107728BF0A20B5FBDC
:104E6000F0F500F0A7FE564E814600F0A3FE336831
:104E7000984267D300F09EFE3468041BFDF76DF87E
:104E8000504BD3F800B0C3F800A0FDF76CF84E4BC0
:104E90009C425DD94D4B9C425ED94D4B9C425FD3A9
:104EA0004C4B9C4295BF4FF47A7038460A26012637
:104EB0000BFB06F3B4FBF0F4B3FBF4F39BB2BB4281
:104EC000454A28BF3B461380444AFB1A9BB21380D5
:104ED000434A1188994203D2B8F1000F00D01380E1
:104EE000DFF808B1FDF739F8DBF80080FDF73BF893
:104EF000B8F1000F37D1FDF730F8DBF80080FDF78F
:104F000032F8B8F1000F3BD1364B1A78012A04D1A0
:104F1000684683F80080FFF7F7FE00F04FFFFFF7C9
:104F20007DFF00F047FE304B1A68A0EB090082427B
:104F300038BF18606A460021284600F045FC4FF053
:104F400001088EE700F036FE3368DB431C1895E756
:104F5000012042F21076ABE70A204FF47A76A7E7F9
:104F600064200646A4E7FCF7F8FFD8F8D030C8E97B
:104F700034A3FCF7F8FFFCF7F0FFD8F8EC80B5E7B6
:104F8000D8F8D430B8F8C0207343B3FBF4F39BB225
:104F9000BB4228BF3B469A4238BFA8F8C030A8F8A9
:104FA000BE3008F1E00208F1E40140466B4600F033
:104FB00041F8FCF7D2FFD8F8EC80A0E79C50002025
:104FC00004520020005200207F1A0600FF083D0016
:104FD000005A6202FF83D717F85100204055002085
:104FE000425500203E5500204056002050560020DB
:104FF00008B500F0DFFD014B186008BDFC51002032
:1050000010B50A4C00F0D6FD2368984208D300F092
:10501000D1FD2368C01A064A13681844106010BDF9
:1050200000F0C8FD2368DB431844F4E7FC5100207E
:10503000005200202DE9F04105460F4616461C4659
:105040000BB9FDF7E9FEFCF791FF48B1202323706F
:105050002F4B636040F2BC63A3602E4BE360FEE71E
:105060004FB90A2323702A4B636040F2BF63A360E9
:10507000284BE360FEE74EB90A232370244B63609C
:1050800040F2C163A360234BE360FEE7FCF765FFDA
:105090000DB9214B1D68D5F80080B8F1000F10D173
:1050A000FCF761FF0823C7F80080C6F80080237072
:1050B000174B636040F2CC63A360164BE360BDE81E
:1050C000F081B5F8408018F001080CD1FCF74BFFD7
:1050D0000723C7F80080C6F8008023700C4B63607C
:1050E00040F2D463E8E7FCF73EFFAA6900231C32D4
:1050F00052F8041F51B13B60EA6BD31A33600023AE
:105100002370034B636040F2EF63D5E70133EFE7B1
:10511000A59300004194000044560020064A002355
:10512000C0F8E8301368C0F8EC300BB91060704775
:10513000C3F8E800FAE700BF50560020D0E93A2350
:1051400042B90A490B600BB1C3F8E8200023C0F84C
:10515000EC307047C2F8EC3013B9C0F8E830704753
:10516000C3F8E8200023C0F8EC30F6E750560020E2
:10517000074A00231360074A1380074A136003702D
:10518000064B436040F621038360054BC3607047C4
:1051900050560020545600204C560020A593000085
:1051A0001E94000038B5F8220446002102F0B4FF36
:1051B0001D4BE3600025002104F18400FFF7CAF8CD
:1051C000C4E92555C4E92D55C4E92755C4E9365528
:1051D000C4E93855C4E91D55C4E93155C4F8A8508F
:1051E000A4F8B050C4F8AC50C4F8A450E564E5632A
:1051F00084F8BC50A4F84050656584F85050A4F879
:10520000BE50A4F8C05000F0D5FC4FF0804323639B
:10521000402384F83430054BA563C4E93305C4E961
:105220003A55C4F8F03038BD18940000789D00005D
:10523000064A031F1C3053F8041F914203D18342D6
:10524000F9D1012070470020704700BF4523CDAB46
:1052500008B9084B1868026883699A4207D3C16B82
:1052600003EB8100824202D21846FFF7E1BF002023
:10527000704700BF44560020034A031F1C3043F808
:10528000042F8342FBD170474523CDAB2DE9F04F6E
:1052900089B0DDE9136A05939DF848300493BDF8A1
:1052A00058300693DDE917931A9C0793BDF86430D4
:1052B000159F03920546884602930CB9FDF7ACFD95
:1052C000FCF754FE834A844B834630B16260F0227F
:1052D000C4E9022320212170FEE735B96260F32280
:1052E000C4E902230A212170FEE7039931B9626003
:1052F000F622C4E902230A212170FEE736B9626072
:10530000F922C4E902230A212170FEE773490968E2
:10531000B94206D96260FC22C4E902230821217047
:10532000FEE7574506D86260FF22C4E90223082140
:105330002170FEE704993F2907D962604FF481721A
:10534000C4E9022308212170FEE76549069809880F
:10535000814207D262604FF48372C4E902230821BC
:105360002170FEE72846FFF71DFF5B4B594AE360BB
:10537000029B626040F20B12A2609A0784F800B0B0
:1053800040F08A80029B059903982AF0070A06EBF1
:105390008A0ACDE900733246534600F013FD864277
:1053A00083460AD9322323704A4B63604FF49473C7
:1053B000A360494BE360FDF72FFD39463046FFF708
:1053C0005BFF039BEB61059B2B62049B454CC5F87F
:1053D0000C8085F8333085F83430C5F800B0C5F856
:1053E00008A0C5F87490B9F1000F62D13E4BD3F814
:1053F00000A001F001FC2268511E0C4649464B46B4
:10540000EAFB0041204602F0AFFC079B6B60029B69
:10541000A5F8403005F184040023C5E92733069937
:10542000C5F8A430A867AE612046EF63FEF792FF8F
:10543000284600F0C4FC2846FBF728FBEB6B95F8E8
:105440003320E96800932846AB69FBF7A7FC424686
:1054500029462620FBF7EEFC424621462320FBF797
:10546000E9FCFCF77AFD044695F83300FFF738FABB
:105470002846FDF7E5FF2846FFF750FE1B4A138834
:10548000013313801A4B1B78012B20461BD009B027
:10549000BDE8F04FFCF767BD029B9B077FF572AF3D
:1054A00000231A4602E046F823200133BB42FAD11A
:1054B00068E701F0A1FB22680023511E0C46194643
:1054C000E9FB00419EE7FCF74EFD09B0BDE8F04F57
:1054D000FEF7CAB8A593000034940000C88F0000FE
:1054E00090500020B4500020305500205456002029
:1054F0002C55002070B504460D4694F83230072B29
:1055000008D8013B062B0BD8DFE803F01F22221F2F
:105510001F222200FF2B1AD0BDE87040FDF77CBC93
:105520002046FEF72BF8284684F83350FFF7D8F9C9
:105530002D4B1B68A342204603D1BDE87040FDF708
:1055400063BFBDE87040FDF77BBF84F8335070BD8A
:1055500094F8303094F8336084F83350013B072BD3
:10556000DAD801A252F823F0895500004F55000007
:105570001955000093550000895500008955000019
:105580004F550000895500002046BDE87040FDF7EA
:1055900071BD2046FDF76EFDE36A5C6AB54294F882
:1055A00033300AD2AB42D2D92046FAF789FF2A46D5
:1055B00001462D20FBF732F99FE7B3429DD12046EB
:1055C000FFF766F894F8342094F83330904228BFFF
:1055D0001046C5B2AB42BAD02046FAF771FF2A4650
:1055E00001462E20E6E700BF445600202DE9F04199
:1055F00004460D4609B9FDF70FFCFCF7B7FC48B1AE
:1056000020232B705B4B6B604FF4DB73AB605A4B0A
:10561000EB60FEE7594B1B78012B0AD002232B705D
:10562000544B6B604FF4DD73AB60534BEB60BDE8E4
:10563000F0812CB9FCF791FC514B1C68FCF793FCF2
:10564000FCF78BFC94F83230072B804608D8013BDE
:10565000062B0DD8DFE803F04935350F4935350005
:10566000FF2B7DD0FCF77FFCBDE8F041FDF7D4BBFC
:105670002046FDF783FFA36B13B12046FFF7F0F838
:1056800004F18400FEF74EFE204600F099FB204610
:10569000FFF754FD3B4A1388013B1380FF2384F836
:1056A00032304046FCF75FFC00232B70314B6B60BF
:1056B00040F23323AB60304BEB60BDE8F041FDF7C7
:1056C000D3BF94F83030082B47D8DFE803F0080543
:1056D00008461705050805002046FDF7B0FC94F8BC
:1056E000323003F0FB03032BC5D104F1580001F065
:1056F000BDF90028BFD0FDF78FFBBCE7E36A5E6A07
:10570000204696F83370FDF79AFC96F8333096F8F9
:1057100034209A420CD094F833209A4208D1304673
:10572000FEF7B6FF96F83410814228BF0146CFB28B
:10573000002384F8303096F83330BB42CFD039465E
:105740003046FFF7D7FE3046FAF7BAFE96F8332018
:1057500001462E20FBF762F8C1E7FDF75DFBBEE7CF
:10576000FCF701FC1F232B70024B6B6040F20923F6
:105770005AE700BFA59300002A9400002C55002092
:1057800044560020545600201FB5054B186800F001
:1057900018FB69460020FFF729FF05B05DF804FB00
:1057A0004456002000230370044B43604123836070
:1057B000034BC360034B1868704700BF4E94000052
:1057C000CB940000B45000202DE9F04F054685B081
:1057D000884614460AB9FDF71FFBFCF7C7FB6C4F60
:1057E0006C4E30B1202323707023C4E90236676009
:1057F000FEE7FCF7C5FB30B11F2323707323C4E918
:1058000002366760FEE7644B93F80090B9F1010F30
:1058100008D00223237067607723C4E9023605B0FD
:10582000BDE8F08F5D4B93F800A0BAF1000F04D0F3
:105830002D23237067607C23EFE7B8F1000F2FD092
:10584000B8F1020F2CD0B8F1080F00F096800823B1
:1058500023708123C4E902366760FEE701F0C0F9D6
:105860004F4B1968A0FB0181029101F0C5F9534625
:1058700002460299404602F077FA4A4B1B6893F8B9
:105880005020CAB15A6D15445D652D1A25EAE5759B
:10589000454A116821B15A6D91429CBF521A5A650E
:1058A000002D49D0404B1B685BB1AB4209D81E2389
:1058B00023706760A923B0E72844586583F85090A7
:1058C000E6E701F099F9364B02901A680392FCF76B
:1058D00044FB039A0299DFF8CCA04FF00009804600
:1058E000CC46501EE5FB010C4B46614602F03CFAEB
:1058F000DAF800B02D4A0146CDE900995B460BF17C
:10590000580001F011F9012530B14046FCF72BFB9E
:1059100025706760B92380E7DAF8000080F832501C
:10592000FDF72CFE4046FCF71EFBFDF79DFE002315
:1059300023706760D22370E7FCF70FFB1C4B1D49F7
:105940001A784FF00C0C02EB42030CFB02F201EB55
:10595000020C01EB83038958DCF8042091420546D0
:1059600006D1FCF700FB002323706760C82354E7CF
:105970001846FDF7ECFD2846D5E7002D7FF46EAF05
:105980008623C4E9023684F800806760FEE700BF22
:105990004E940000C19400002C5500202D5500208D
:1059A000B450002044560020D8500020F5380000A4
:1059B000225200202C52002000B589B004AB0022F6
:1059C0000093044803AB1146FEF7CEFC09B05DF826
:1059D00004FB00BF645600201FB504486A4600213E
:1059E000FEF764FE05B05DF804FB00BF64560020BE
:1059F00010B51F4A002313601E4A044613601E4A56
:105A00008AB01380FFF7CEFE2378002B2CD11B4BDE
:105A10001B68002B2AD0B0FBF3F3194A1949136015
:105A2000194A1A4813601A4A00231360194A13606E
:105A30002246FEF7D1FD2378B3B90B22CDE9063219
:105A4000CDE90433144A089412680392134A1449A6
:105A500012680292134A144812680192134A12788B
:105A60000092134AFFF712FC0AB010BD0A23D2E7D6
:105A700058560020605600205C560020BC50002084
:105A800098570020DF9400009C57002064560020A7
:105A90009457002090570020CC500020C850002080
:105AA000EC940000C450002098560020B85000200C
:105AB000F15A00000C4A03691168814204D1136055
:105AC00033B100225A6103E042691361002BF9D11E
:105AD000064A012380F826300023C0E904331388E6
